{
  "contractName": "AllowanceV2",
  "abi": [
    {
      "anonymous": false,
      "inputs": [
        {
          "indexed": true,
          "internalType": "address",
          "name": "payer",
          "type": "address"
        },
        {
          "indexed": true,
          "internalType": "address",
          "name": "payee",
          "type": "address"
        }
      ],
      "name": "AllowanceCancelled",
      "type": "event"
    },
    {
      "anonymous": false,
      "inputs": [
        {
          "indexed": true,
          "internalType": "address",
          "name": "payer",
          "type": "address"
        },
        {
          "indexed": true,
          "internalType": "address",
          "name": "payee",
          "type": "address"
        },
        {
          "indexed": false,
          "internalType": "uint256",
          "name": "amount",
          "type": "uint256"
        },
        {
          "indexed": false,
          "internalType": "address",
          "name": "token",
          "type": "address"
        },
        {
          "indexed": false,
          "internalType": "uint256",
          "name": "period",
          "type": "uint256"
        },
        {
          "indexed": false,
          "internalType": "uint256",
          "name": "nextTimestamp",
          "type": "uint256"
        }
      ],
      "name": "AllowanceCreated",
      "type": "event"
    },
    {
      "anonymous": false,
      "inputs": [
        {
          "indexed": true,
          "internalType": "address",
          "name": "payer",
          "type": "address"
        },
        {
          "indexed": true,
          "internalType": "address",
          "name": "payee",
          "type": "address"
        },
        {
          "indexed": false,
          "internalType": "uint256",
          "name": "amount",
          "type": "uint256"
        },
        {
          "indexed": false,
          "internalType": "address",
          "name": "token",
          "type": "address"
        }
      ],
      "name": "AllowancePaid",
      "type": "event"
    },
    {
      "anonymous": false,
      "inputs": [
        {
          "indexed": true,
          "internalType": "address",
          "name": "payer",
          "type": "address"
        },
        {
          "indexed": true,
          "internalType": "address",
          "name": "payee",
          "type": "address"
        }
      ],
      "name": "AllowancePaused",
      "type": "event"
    },
    {
      "anonymous": false,
      "inputs": [
        {
          "indexed": true,
          "internalType": "address",
          "name": "payer",
          "type": "address"
        },
        {
          "indexed": true,
          "internalType": "address",
          "name": "payee",
          "type": "address"
        },
        {
          "indexed": false,
          "internalType": "uint256",
          "name": "amount",
          "type": "uint256"
        },
        {
          "indexed": false,
          "internalType": "address",
          "name": "token",
          "type": "address"
        },
        {
          "indexed": false,
          "internalType": "uint256",
          "name": "period",
          "type": "uint256"
        },
        {
          "indexed": false,
          "internalType": "uint256",
          "name": "nextTimestamp",
          "type": "uint256"
        }
      ],
      "name": "AllowanceUpdated",
      "type": "event"
    },
    {
      "anonymous": false,
      "inputs": [
        {
          "indexed": true,
          "internalType": "address",
          "name": "payer",
          "type": "address"
        },
        {
          "indexed": true,
          "internalType": "address",
          "name": "token",
          "type": "address"
        },
        {
          "indexed": false,
          "internalType": "uint256",
          "name": "amount",
          "type": "uint256"
        }
      ],
      "name": "TopUp",
      "type": "event"
    },
    {
      "anonymous": false,
      "inputs": [
        {
          "indexed": true,
          "internalType": "address",
          "name": "payer",
          "type": "address"
        },
        {
          "indexed": true,
          "internalType": "address",
          "name": "token",
          "type": "address"
        },
        {
          "indexed": false,
          "internalType": "uint256",
          "name": "amount",
          "type": "uint256"
        }
      ],
      "name": "Withdrawal",
      "type": "event"
    },
    {
      "inputs": [
        {
          "internalType": "address",
          "name": "",
          "type": "address"
        },
        {
          "internalType": "address",
          "name": "",
          "type": "address"
        }
      ],
      "name": "allowances",
      "outputs": [
        {
          "internalType": "address",
          "name": "payer",
          "type": "address"
        },
        {
          "internalType": "address",
          "name": "payee",
          "type": "address"
        },
        {
          "internalType": "uint256",
          "name": "amount",
          "type": "uint256"
        },
        {
          "internalType": "address",
          "name": "token",
          "type": "address"
        },
        {
          "internalType": "uint256",
          "name": "period",
          "type": "uint256"
        },
        {
          "internalType": "uint256",
          "name": "nextTimestamp",
          "type": "uint256"
        }
      ],
      "stateMutability": "view",
      "type": "function"
    },
    {
      "inputs": [
        {
          "internalType": "address",
          "name": "",
          "type": "address"
        },
        {
          "internalType": "address",
          "name": "",
          "type": "address"
        }
      ],
      "name": "payerBalances",
      "outputs": [
        {
          "internalType": "uint256",
          "name": "",
          "type": "uint256"
        }
      ],
      "stateMutability": "view",
      "type": "function"
    },
    {
      "inputs": [],
      "name": "payerCount",
      "outputs": [
        {
          "internalType": "uint256",
          "name": "",
          "type": "uint256"
        }
      ],
      "stateMutability": "view",
      "type": "function"
    },
    {
      "inputs": [
        {
          "internalType": "address",
          "name": "",
          "type": "address"
        }
      ],
      "name": "payerPayeeCount",
      "outputs": [
        {
          "internalType": "uint256",
          "name": "",
          "type": "uint256"
        }
      ],
      "stateMutability": "view",
      "type": "function"
    },
    {
      "inputs": [
        {
          "internalType": "address",
          "name": "",
          "type": "address"
        },
        {
          "internalType": "uint256",
          "name": "",
          "type": "uint256"
        }
      ],
      "name": "payerPayees",
      "outputs": [
        {
          "internalType": "address",
          "name": "",
          "type": "address"
        }
      ],
      "stateMutability": "view",
      "type": "function"
    },
    {
      "inputs": [
        {
          "internalType": "address",
          "name": "",
          "type": "address"
        },
        {
          "internalType": "address",
          "name": "",
          "type": "address"
        }
      ],
      "name": "payerRegisteredPayees",
      "outputs": [
        {
          "internalType": "bool",
          "name": "",
          "type": "bool"
        }
      ],
      "stateMutability": "view",
      "type": "function"
    },
    {
      "inputs": [
        {
          "internalType": "uint256",
          "name": "",
          "type": "uint256"
        }
      ],
      "name": "payers",
      "outputs": [
        {
          "internalType": "address",
          "name": "",
          "type": "address"
        }
      ],
      "stateMutability": "view",
      "type": "function"
    },
    {
      "inputs": [
        {
          "internalType": "address",
          "name": "",
          "type": "address"
        }
      ],
      "name": "registeredPayers",
      "outputs": [
        {
          "internalType": "bool",
          "name": "",
          "type": "bool"
        }
      ],
      "stateMutability": "view",
      "type": "function"
    },
    {
      "inputs": [
        {
          "internalType": "bytes",
          "name": "",
          "type": "bytes"
        }
      ],
      "name": "checkUpkeep",
      "outputs": [
        {
          "internalType": "bool",
          "name": "upkeepNeeded",
          "type": "bool"
        },
        {
          "internalType": "bytes",
          "name": "performData",
          "type": "bytes"
        }
      ],
      "stateMutability": "view",
      "type": "function"
    },
    {
      "inputs": [
        {
          "internalType": "bytes",
          "name": "performData",
          "type": "bytes"
        }
      ],
      "name": "performUpkeep",
      "outputs": [],
      "stateMutability": "nonpayable",
      "type": "function"
    },
    {
      "inputs": [],
      "name": "settleOutstandingAllowances",
      "outputs": [],
      "stateMutability": "nonpayable",
      "type": "function"
    },
    {
      "inputs": [
        {
          "internalType": "address",
          "name": "_payee",
          "type": "address"
        },
        {
          "internalType": "uint256",
          "name": "_amount",
          "type": "uint256"
        },
        {
          "internalType": "address",
          "name": "_token",
          "type": "address"
        },
        {
          "internalType": "uint256",
          "name": "_period",
          "type": "uint256"
        },
        {
          "internalType": "uint256",
          "name": "_nextTimestamp",
          "type": "uint256"
        }
      ],
      "name": "setAllowance",
      "outputs": [],
      "stateMutability": "nonpayable",
      "type": "function"
    },
    {
      "inputs": [
        {
          "internalType": "address",
          "name": "_payee",
          "type": "address"
        }
      ],
      "name": "pauseAllowance",
      "outputs": [],
      "stateMutability": "nonpayable",
      "type": "function"
    },
    {
      "inputs": [
        {
          "internalType": "address",
          "name": "_payee",
          "type": "address"
        }
      ],
      "name": "cancelAllowance",
      "outputs": [],
      "stateMutability": "nonpayable",
      "type": "function"
    },
    {
      "inputs": [],
      "name": "pauseOwnAllowances",
      "outputs": [],
      "stateMutability": "nonpayable",
      "type": "function"
    },
    {
      "inputs": [],
      "name": "cancelOwnAllowances",
      "outputs": [],
      "stateMutability": "nonpayable",
      "type": "function"
    },
    {
      "inputs": [
        {
          "internalType": "address",
          "name": "_token",
          "type": "address"
        },
        {
          "internalType": "uint256",
          "name": "_amount",
          "type": "uint256"
        }
      ],
      "name": "topUp",
      "outputs": [],
      "stateMutability": "nonpayable",
      "type": "function"
    },
    {
      "inputs": [
        {
          "internalType": "address",
          "name": "_token",
          "type": "address"
        },
        {
          "internalType": "uint256",
          "name": "_amount",
          "type": "uint256"
        }
      ],
      "name": "withdraw",
      "outputs": [],
      "stateMutability": "nonpayable",
      "type": "function"
    }
  ],
  "bytecode": "0x608060405234801561001057600080fd5b50612ad2806100206000396000f3fe608060405234801561001057600080fd5b50600436106101165760003560e01c80637fcb9294116100a2578063d6f7ddf911610071578063d6f7ddf91461031d578063d89fd31e14610339578063f3fef3a314610355578063fd6b86ab14610371578063fe293a7e1461037b57610116565b80637fcb929414610295578063adda66211461029f578063c782b29f146102bd578063d5e59ee1146102ed57610116565b80634585e33b116100e95780634585e33b146101c757806355b6ed5c146101e35780636327174a1461021857806365d82931146102345780636e04ff0d1461026457610116565b806307251f391461011b5780630b61431e1461014b5780631d4a1aa31461017b5780633ccfbd0314610197575b600080fd5b61013560048036038101906101309190611eac565b610385565b6040516101429190611f05565b60405180910390f35b61016560048036038101906101609190611eac565b6103aa565b6040516101729190611f3b565b60405180910390f35b61019560048036038101906101909190611f56565b6103d9565b005b6101b160048036038101906101ac9190611faf565b6105c8565b6040516101be9190611feb565b60405180910390f35b6101e160048036038101906101dc919061206b565b610607565b005b6101fd60048036038101906101f89190611eac565b610658565b60405161020f969594939291906120b8565b60405180910390f35b610232600480360381019061022d9190612119565b610701565b005b61024e60048036038101906102499190611f56565b610d8e565b60405161025b9190611f05565b60405180910390f35b61027e6004803603810190610279919061206b565b610da6565b60405161028c92919061222d565b60405180910390f35b61029d610dbf565b005b6102a7610dd1565b6040516102b49190611f05565b60405180910390f35b6102d760048036038101906102d29190611f56565b610dd7565b6040516102e49190611f3b565b60405180910390f35b6103076004803603810190610302919061225d565b610df7565b6040516103149190611feb565b60405180910390f35b6103376004803603810190610332919061225d565b610e45565b005b610353600480360381019061034e9190611f56565b610fc2565b005b61036f600480360381019061036a919061225d565b611238565b005b610379611472565b005b610383611556565b005b6001602052816000526040600020602052806000526040600020600091509150505481565b60076020528160005260406000206020528060005260406000206000915091509054906101000a900460ff1681565b808073ffffffffffffffffffffffffffffffffffffffff166000803373ffffffffffffffffffffffffffffffffffffffff1673ffffffffffffffffffffffffffffffffffffffff16815260200190815260200160002060008373ffffffffffffffffffffffffffffffffffffffff1673ffffffffffffffffffffffffffffffffffffffff16815260200190815260200160002060010160009054906101000a900473ffffffffffffffffffffffffffffffffffffffff1673ffffffffffffffffffffffffffffffffffffffff16146104e6576040517f08c379a00000000000000000000000000000000000000000000000000000000081526004016104dd90612320565b60405180910390fd5b60008060003373ffffffffffffffffffffffffffffffffffffffff1673ffffffffffffffffffffffffffffffffffffffff16815260200190815260200160002060008473ffffffffffffffffffffffffffffffffffffffff1673ffffffffffffffffffffffffffffffffffffffff168152602001908152602001600020600501819055508173ffffffffffffffffffffffffffffffffffffffff163373ffffffffffffffffffffffffffffffffffffffff167f4df14d6e1bddacd844dfe7a3f5bc533c8163030e0d2e62d226df27ecac0481ed60405160405180910390a35050565b600381815481106105d857600080fd5b906000526020600020016000915054906101000a900473ffffffffffffffffffffffffffffffffffffffff1681565b61065482828080601f016020809104026020016040519081016040528093929190818152602001838380828437600081840152601f19601f8201169050808301925050505050505061163a565b5050565b6000602052816000526040600020602052806000526040600020600091509150508060000160009054906101000a900473ffffffffffffffffffffffffffffffffffffffff16908060010160009054906101000a900473ffffffffffffffffffffffffffffffffffffffff16908060020154908060030160009054906101000a900473ffffffffffffffffffffffffffffffffffffffff16908060040154908060050154905086565b6000806000803373ffffffffffffffffffffffffffffffffffffffff1673ffffffffffffffffffffffffffffffffffffffff16815260200190815260200160002060008873ffffffffffffffffffffffffffffffffffffffff1673ffffffffffffffffffffffffffffffffffffffff168152602001908152602001600020600401541190506040518060c001604052803373ffffffffffffffffffffffffffffffffffffffff1681526020018773ffffffffffffffffffffffffffffffffffffffff1681526020018681526020018573ffffffffffffffffffffffffffffffffffffffff168152602001848152602001838152506000803373ffffffffffffffffffffffffffffffffffffffff1673ffffffffffffffffffffffffffffffffffffffff16815260200190815260200160002060008873ffffffffffffffffffffffffffffffffffffffff1673ffffffffffffffffffffffffffffffffffffffff16815260200190815260200160002060008201518160000160006101000a81548173ffffffffffffffffffffffffffffffffffffffff021916908373ffffffffffffffffffffffffffffffffffffffff16021790555060208201518160010160006101000a81548173ffffffffffffffffffffffffffffffffffffffff021916908373ffffffffffffffffffffffffffffffffffffffff1602179055506040820151816002015560608201518160030160006101000a81548173ffffffffffffffffffffffffffffffffffffffff021916908373ffffffffffffffffffffffffffffffffffffffff1602179055506080820151816004015560a08201518160050155905050600460003373ffffffffffffffffffffffffffffffffffffffff1673ffffffffffffffffffffffffffffffffffffffff16815260200190815260200160002060009054906101000a900460ff16610a8b576003339080600181540180825580915050600190039060005260206000200160009091909190916101000a81548173ffffffffffffffffffffffffffffffffffffffff021916908373ffffffffffffffffffffffffffffffffffffffff16021790555060026000815480929190610a2d9061236f565b91905055506001600460003373ffffffffffffffffffffffffffffffffffffffff1673ffffffffffffffffffffffffffffffffffffffff16815260200190815260200160002060006101000a81548160ff0219169083151502179055505b600760003373ffffffffffffffffffffffffffffffffffffffff1673ffffffffffffffffffffffffffffffffffffffff16815260200190815260200160002060008773ffffffffffffffffffffffffffffffffffffffff1673ffffffffffffffffffffffffffffffffffffffff16815260200190815260200160002060009054906101000a900460ff16610ca457600660003373ffffffffffffffffffffffffffffffffffffffff1673ffffffffffffffffffffffffffffffffffffffff168152602001908152602001600020869080600181540180825580915050600190039060005260206000200160009091909190916101000a81548173ffffffffffffffffffffffffffffffffffffffff021916908373ffffffffffffffffffffffffffffffffffffffff160217905550600560003373ffffffffffffffffffffffffffffffffffffffff1673ffffffffffffffffffffffffffffffffffffffff1681526020019081526020016000206000815480929190610c099061236f565b91905055506001600760003373ffffffffffffffffffffffffffffffffffffffff1673ffffffffffffffffffffffffffffffffffffffff16815260200190815260200160002060008873ffffffffffffffffffffffffffffffffffffffff1673ffffffffffffffffffffffffffffffffffffffff16815260200190815260200160002060006101000a81548160ff0219169083151502179055505b8015610d1a578573ffffffffffffffffffffffffffffffffffffffff163373ffffffffffffffffffffffffffffffffffffffff167f98c49d189764d0af2d3a63ffee058cf13d94263bd3420bdda3e71694e38c655787878787604051610d0d94939291906123b7565b60405180910390a3610d86565b8573ffffffffffffffffffffffffffffffffffffffff163373ffffffffffffffffffffffffffffffffffffffff167fe73243455705af10388a91012c9ad7ead05c63209ce153c3f33976e453d93ca387878787604051610d7d94939291906123b7565b60405180910390a35b505050505050565b60056020528060005260406000206000915090505481565b6000606060009150610db66116d0565b90509250929050565b610dcf610dca6116d0565b61163a565b565b60025481565b60046020528060005260406000206000915054906101000a900460ff1681565b60066020528160005260406000208181548110610e1357600080fd5b906000526020600020016000915091509054906101000a900473ffffffffffffffffffffffffffffffffffffffff1681565b8173ffffffffffffffffffffffffffffffffffffffff166323b872dd3330846040518463ffffffff1660e01b8152600401610e82939291906123fc565b6020604051808303816000875af1158015610ea1573d6000803e3d6000fd5b505050506040513d601f19601f82011682018060405250810190610ec5919061245f565b5080600160003373ffffffffffffffffffffffffffffffffffffffff1673ffffffffffffffffffffffffffffffffffffffff16815260200190815260200160002060008473ffffffffffffffffffffffffffffffffffffffff1673ffffffffffffffffffffffffffffffffffffffff1681526020019081526020016000206000828254610f52919061248c565b925050819055508173ffffffffffffffffffffffffffffffffffffffff163373ffffffffffffffffffffffffffffffffffffffff167f57939c7190667481229eac6b5843a99e86f4981171ad74ddf21c5b51e9fc1e0c83604051610fb69190611f05565b60405180910390a35050565b808073ffffffffffffffffffffffffffffffffffffffff166000803373ffffffffffffffffffffffffffffffffffffffff1673ffffffffffffffffffffffffffffffffffffffff16815260200190815260200160002060008373ffffffffffffffffffffffffffffffffffffffff1673ffffffffffffffffffffffffffffffffffffffff16815260200190815260200160002060010160009054906101000a900473ffffffffffffffffffffffffffffffffffffffff1673ffffffffffffffffffffffffffffffffffffffff16146110cf576040517f08c379a00000000000000000000000000000000000000000000000000000000081526004016110c690612320565b60405180910390fd5b6000803373ffffffffffffffffffffffffffffffffffffffff1673ffffffffffffffffffffffffffffffffffffffff16815260200190815260200160002060008373ffffffffffffffffffffffffffffffffffffffff1673ffffffffffffffffffffffffffffffffffffffff168152602001908152602001600020600080820160006101000a81549073ffffffffffffffffffffffffffffffffffffffff02191690556001820160006101000a81549073ffffffffffffffffffffffffffffffffffffffff021916905560028201600090556003820160006101000a81549073ffffffffffffffffffffffffffffffffffffffff02191690556004820160009055600582016000905550508173ffffffffffffffffffffffffffffffffffffffff163373ffffffffffffffffffffffffffffffffffffffff167fd674c1056cf2d7a1592c911fb036d689c825cb14cfb54cb07138ef03ab4dab9460405160405180910390a35050565b600160003373ffffffffffffffffffffffffffffffffffffffff1673ffffffffffffffffffffffffffffffffffffffff16815260200190815260200160002060008373ffffffffffffffffffffffffffffffffffffffff1673ffffffffffffffffffffffffffffffffffffffff168152602001908152602001600020548111156112f7576040517f08c379a00000000000000000000000000000000000000000000000000000000081526004016112ee9061252e565b60405180910390fd5b80600160003373ffffffffffffffffffffffffffffffffffffffff1673ffffffffffffffffffffffffffffffffffffffff16815260200190815260200160002060008473ffffffffffffffffffffffffffffffffffffffff1673ffffffffffffffffffffffffffffffffffffffff1681526020019081526020016000206000828254611383919061254e565b925050819055508173ffffffffffffffffffffffffffffffffffffffff1663a9059cbb33836040518363ffffffff1660e01b81526004016113c5929190612582565b6020604051808303816000875af11580156113e4573d6000803e3d6000fd5b505050506040513d601f19601f82011682018060405250810190611408919061245f565b508173ffffffffffffffffffffffffffffffffffffffff163373ffffffffffffffffffffffffffffffffffffffff167f2717ead6b9200dd235aad468c9809ea400fe33ac69b5bfaa6d3e90fc922b6398836040516114669190611f05565b60405180910390a35050565b60005b600560003373ffffffffffffffffffffffffffffffffffffffff1673ffffffffffffffffffffffffffffffffffffffff1681526020019081526020016000205481101561155357611540600660003373ffffffffffffffffffffffffffffffffffffffff1673ffffffffffffffffffffffffffffffffffffffff16815260200190815260200160002082815481106115105761150f6125ab565b5b9060005260206000200160009054906101000a900473ffffffffffffffffffffffffffffffffffffffff166103d9565b808061154b9061236f565b915050611475565b50565b60005b600560003373ffffffffffffffffffffffffffffffffffffffff1673ffffffffffffffffffffffffffffffffffffffff1681526020019081526020016000205481101561163757611624600660003373ffffffffffffffffffffffffffffffffffffffff1673ffffffffffffffffffffffffffffffffffffffff16815260200190815260200160002082815481106115f4576115f36125ab565b5b9060005260206000200160009054906101000a900473ffffffffffffffffffffffffffffffffffffffff16610fc2565b808061162f9061236f565b915050611559565b50565b6000808280602001905181019061165191906127f1565b9150915060005b828110156116ca576000828281518110611675576116746125ab565b5b6020026020010151905060008082806020019051810190611696919061288b565b915091506116a4828261189f565b156116b4576116b38282611afa565b5b50505080806116c29061236f565b915050611658565b50505050565b60606000606060005b6002548111611875576000600382815481106116f8576116f76125ab565b5b9060005260206000200160009054906101000a900473ffffffffffffffffffffffffffffffffffffffff16905060005b600560008373ffffffffffffffffffffffffffffffffffffffff1673ffffffffffffffffffffffffffffffffffffffff168152602001908152602001600020548111611860576000600660008473ffffffffffffffffffffffffffffffffffffffff1673ffffffffffffffffffffffffffffffffffffffff16815260200190815260200160002082815481106117c1576117c06125ab565b5b9060005260206000200160009054906101000a900473ffffffffffffffffffffffffffffffffffffffff1690506117f8838261189f565b1561184c5782816040516020016118109291906128cb565b604051602081830303815290604052858781518110611832576118316125ab565b5b602002602001018190525085806118489061236f565b9650505b5080806118589061236f565b915050611728565b5050808061186d9061236f565b9150506116d9565b508181604051602001611889929190612a00565b6040516020818303038152906040529250505090565b6000806000808573ffffffffffffffffffffffffffffffffffffffff1673ffffffffffffffffffffffffffffffffffffffff16815260200190815260200160002060008473ffffffffffffffffffffffffffffffffffffffff1673ffffffffffffffffffffffffffffffffffffffff1681526020019081526020016000206040518060c00160405290816000820160009054906101000a900473ffffffffffffffffffffffffffffffffffffffff1673ffffffffffffffffffffffffffffffffffffffff1673ffffffffffffffffffffffffffffffffffffffff1681526020016001820160009054906101000a900473ffffffffffffffffffffffffffffffffffffffff1673ffffffffffffffffffffffffffffffffffffffff1673ffffffffffffffffffffffffffffffffffffffff168152602001600282015481526020016003820160009054906101000a900473ffffffffffffffffffffffffffffffffffffffff1673ffffffffffffffffffffffffffffffffffffffff1673ffffffffffffffffffffffffffffffffffffffff16815260200160048201548152602001600582015481525050905060008160a00151118015611a615750428160a00151105b8015611af15750600160008573ffffffffffffffffffffffffffffffffffffffff1673ffffffffffffffffffffffffffffffffffffffff1681526020019081526020016000206000826060015173ffffffffffffffffffffffffffffffffffffffff1673ffffffffffffffffffffffffffffffffffffffff16815260200190815260200160002054816040015111155b91505092915050565b60011515611b08838361189f565b151514611b4a576040517f08c379a0000000000000000000000000000000000000000000000000000000008152600401611b4190612a7c565b60405180910390fd5b60008060008473ffffffffffffffffffffffffffffffffffffffff1673ffffffffffffffffffffffffffffffffffffffff16815260200190815260200160002060008373ffffffffffffffffffffffffffffffffffffffff1673ffffffffffffffffffffffffffffffffffffffff1681526020019081526020016000206040518060c00160405290816000820160009054906101000a900473ffffffffffffffffffffffffffffffffffffffff1673ffffffffffffffffffffffffffffffffffffffff1673ffffffffffffffffffffffffffffffffffffffff1681526020016001820160009054906101000a900473ffffffffffffffffffffffffffffffffffffffff1673ffffffffffffffffffffffffffffffffffffffff1673ffffffffffffffffffffffffffffffffffffffff168152602001600282015481526020016003820160009054906101000a900473ffffffffffffffffffffffffffffffffffffffff1673ffffffffffffffffffffffffffffffffffffffff1673ffffffffffffffffffffffffffffffffffffffff1681526020016004820154815260200160058201548152505090508060400151600160008573ffffffffffffffffffffffffffffffffffffffff1673ffffffffffffffffffffffffffffffffffffffff1681526020019081526020016000206000836060015173ffffffffffffffffffffffffffffffffffffffff1673ffffffffffffffffffffffffffffffffffffffff1681526020019081526020016000206000828254611d88919061254e565b9250508190555080608001518160a001818151611da5919061248c565b91508181525050806060015173ffffffffffffffffffffffffffffffffffffffff166323b872dd848484604001516040518463ffffffff1660e01b8152600401611df1939291906123fc565b6020604051808303816000875af1158015611e10573d6000803e3d6000fd5b505050506040513d601f19601f82011682018060405250810190611e34919061245f565b50505050565b6000604051905090565b600080fd5b600080fd5b600073ffffffffffffffffffffffffffffffffffffffff82169050919050565b6000611e7982611e4e565b9050919050565b611e8981611e6e565b8114611e9457600080fd5b50565b600081359050611ea681611e80565b92915050565b60008060408385031215611ec357611ec2611e44565b5b6000611ed185828601611e97565b9250506020611ee285828601611e97565b9150509250929050565b6000819050919050565b611eff81611eec565b82525050565b6000602082019050611f1a6000830184611ef6565b92915050565b60008115159050919050565b611f3581611f20565b82525050565b6000602082019050611f506000830184611f2c565b92915050565b600060208284031215611f6c57611f6b611e44565b5b6000611f7a84828501611e97565b91505092915050565b611f8c81611eec565b8114611f9757600080fd5b50565b600081359050611fa981611f83565b92915050565b600060208284031215611fc557611fc4611e44565b5b6000611fd384828501611f9a565b91505092915050565b611fe581611e6e565b82525050565b60006020820190506120006000830184611fdc565b92915050565b600080fd5b600080fd5b600080fd5b60008083601f84011261202b5761202a612006565b5b8235905067ffffffffffffffff8111156120485761204761200b565b5b60208301915083600182028301111561206457612063612010565b5b9250929050565b6000806020838503121561208257612081611e44565b5b600083013567ffffffffffffffff8111156120a05761209f611e49565b5b6120ac85828601612015565b92509250509250929050565b600060c0820190506120cd6000830189611fdc565b6120da6020830188611fdc565b6120e76040830187611ef6565b6120f46060830186611fdc565b6121016080830185611ef6565b61210e60a0830184611ef6565b979650505050505050565b600080600080600060a0868803121561213557612134611e44565b5b600061214388828901611e97565b955050602061215488828901611f9a565b945050604061216588828901611e97565b935050606061217688828901611f9a565b925050608061218788828901611f9a565b9150509295509295909350565b600081519050919050565b600082825260208201905092915050565b60005b838110156121ce5780820151818401526020810190506121b3565b838111156121dd576000848401525b50505050565b6000601f19601f8301169050919050565b60006121ff82612194565b612209818561219f565b93506122198185602086016121b0565b612222816121e3565b840191505092915050565b60006040820190506122426000830185611f2c565b818103602083015261225481846121f4565b90509392505050565b6000806040838503121561227457612273611e44565b5b600061228285828601611e97565b925050602061229385828601611f9a565b9150509250929050565b600082825260208201905092915050565b7f547279696e6720746f207570646174652061206e6f6e2d6578697374696e672060008201527f616c6c6f77616e63650000000000000000000000000000000000000000000000602082015250565b600061230a60298361229d565b9150612315826122ae565b604082019050919050565b60006020820190508181036000830152612339816122fd565b9050919050565b7f4e487b7100000000000000000000000000000000000000000000000000000000600052601160045260246000fd5b600061237a82611eec565b91507fffffffffffffffffffffffffffffffffffffffffffffffffffffffffffffffff82036123ac576123ab612340565b5b600182019050919050565b60006080820190506123cc6000830187611ef6565b6123d96020830186611fdc565b6123e66040830185611ef6565b6123f36060830184611ef6565b95945050505050565b60006060820190506124116000830186611fdc565b61241e6020830185611fdc565b61242b6040830184611ef6565b949350505050565b61243c81611f20565b811461244757600080fd5b50565b60008151905061245981612433565b92915050565b60006020828403121561247557612474611e44565b5b60006124838482850161244a565b91505092915050565b600061249782611eec565b91506124a283611eec565b9250827fffffffffffffffffffffffffffffffffffffffffffffffffffffffffffffffff038211156124d7576124d6612340565b5b828201905092915050565b7f4e6f7420656e6f7567682066756e647320746f20776974686472617700000000600082015250565b6000612518601c8361229d565b9150612523826124e2565b602082019050919050565b600060208201905081810360008301526125478161250b565b9050919050565b600061255982611eec565b915061256483611eec565b92508282101561257757612576612340565b5b828203905092915050565b60006040820190506125976000830185611fdc565b6125a46020830184611ef6565b9392505050565b7f4e487b7100000000000000000000000000000000000000000000000000000000600052603260045260246000fd5b6000815190506125e981611f83565b92915050565b7f4e487b7100000000000000000000000000000000000000000000000000000000600052604160045260246000fd5b612627826121e3565b810181811067ffffffffffffffff82111715612646576126456125ef565b5b80604052505050565b6000612659611e3a565b9050612665828261261e565b919050565b600067ffffffffffffffff821115612685576126846125ef565b5b602082029050602081019050919050565b600080fd5b600067ffffffffffffffff8211156126b6576126b56125ef565b5b6126bf826121e3565b9050602081019050919050565b60006126df6126da8461269b565b61264f565b9050828152602081018484840111156126fb576126fa612696565b5b6127068482856121b0565b509392505050565b600082601f83011261272357612722612006565b5b81516127338482602086016126cc565b91505092915050565b600061274f61274a8461266a565b61264f565b9050808382526020820190506020840283018581111561277257612771612010565b5b835b818110156127b957805167ffffffffffffffff81111561279757612796612006565b5b8086016127a4898261270e565b85526020850194505050602081019050612774565b5050509392505050565b600082601f8301126127d8576127d7612006565b5b81516127e884826020860161273c565b91505092915050565b6000806040838503121561280857612807611e44565b5b6000612816858286016125da565b925050602083015167ffffffffffffffff81111561283757612836611e49565b5b612843858286016127c3565b9150509250929050565b600061285882611e4e565b9050919050565b6128688161284d565b811461287357600080fd5b50565b6000815190506128858161285f565b92915050565b600080604083850312156128a2576128a1611e44565b5b60006128b085828601612876565b92505060206128c185828601612876565b9150509250929050565b60006040820190506128e06000830185611fdc565b6128ed6020830184611fdc565b9392505050565b600081519050919050565b600082825260208201905092915050565b6000819050602082019050919050565b600082825260208201905092915050565b600061293c82612194565b6129468185612920565b93506129568185602086016121b0565b61295f816121e3565b840191505092915050565b60006129768383612931565b905092915050565b6000602082019050919050565b6000612996826128f4565b6129a081856128ff565b9350836020820285016129b285612910565b8060005b858110156129ee57848403895281516129cf858261296a565b94506129da8361297e565b925060208a019950506001810190506129b6565b50829750879550505050505092915050565b6000604082019050612a156000830185611ef6565b8181036020830152612a27818461298b565b90509392505050565b7f416c6c6f77616e63652069736e2774206f75747374616e64696e670000000000600082015250565b6000612a66601b8361229d565b9150612a7182612a30565b602082019050919050565b60006020820190508181036000830152612a9581612a59565b905091905056fea2646970667358221220ce71e0da02e9647ac9c3c4db76ea1273ef679368236eb589ca0ebb3557530d3764736f6c634300080e0033",
  "immutableReferences": {},
  "source": "// SPDX-License-Identifier: GPL-3.0\r\n\r\npragma solidity >=0.7.0 <0.9.0;\r\n\r\nimport \"@chainlink/contracts/src/v0.8/KeeperCompatible.sol\";\r\nimport \"@openzeppelin/contracts/token/ERC20/IERC20.sol\";\r\n\r\ncontract AllowanceV2 is KeeperCompatibleInterface {\r\n    struct Allowance {\r\n        address payer;\r\n        address payee;\r\n        uint256 amount;\r\n        address token;\r\n        uint256 period;\r\n        uint256 nextTimestamp;\r\n    }\r\n\r\n    mapping(address => mapping(address => Allowance)) public allowances;\r\n    mapping(address => mapping(address => uint256)) public payerBalances;\r\n\r\n    uint256 public payerCount;\r\n    address[] public payers;\r\n    mapping(address => bool) public registeredPayers;\r\n\r\n    mapping(address => uint256) public payerPayeeCount;\r\n    mapping(address => address[]) public payerPayees;\r\n    mapping(address => mapping(address => bool)) public payerRegisteredPayees;\r\n\r\n    /**\r\n     * Events\r\n     */\r\n\r\n    event AllowanceCreated(\r\n        address indexed payer,\r\n        address indexed payee,\r\n        uint256 amount,\r\n        address token,\r\n        uint256 period,\r\n        uint256 nextTimestamp\r\n    );\r\n\r\n    event AllowanceUpdated(\r\n        address indexed payer,\r\n        address indexed payee,\r\n        uint256 amount,\r\n        address token,\r\n        uint256 period,\r\n        uint256 nextTimestamp\r\n    );\r\n\r\n    event AllowancePaused(address indexed payer, address indexed payee);\r\n\r\n    event AllowanceCancelled(address indexed payer, address indexed payee);\r\n\r\n    event AllowancePaid(\r\n        address indexed payer,\r\n        address indexed payee,\r\n        uint256 amount,\r\n        address token\r\n    );\r\n\r\n    event TopUp(address indexed payer, address indexed token, uint256 amount);\r\n    event Withdrawal(\r\n        address indexed payer,\r\n        address indexed token,\r\n        uint256 amount\r\n    );\r\n\r\n    /**\r\n     * Modifiers\r\n     */\r\n\r\n    modifier hasAllowanceWith(address _payee) {\r\n        require(\r\n            allowances[msg.sender][_payee].payee == _payee,\r\n            \"Trying to update a non-existing allowance\"\r\n        );\r\n        _;\r\n    }\r\n\r\n    /**\r\n     * Keepers compatibility\r\n     */\r\n\r\n    function checkUpkeep(\r\n        bytes calldata /* checkData */\r\n    )\r\n        public\r\n        view\r\n        override\r\n        returns (bool upkeepNeeded, bytes memory performData)\r\n    {\r\n        upkeepNeeded = false; // TODO\r\n        performData = getOutstandingAllowancesData();\r\n    }\r\n\r\n    function performUpkeep(bytes calldata performData) external override {\r\n        performAllowances(performData);\r\n    }\r\n\r\n    /**\r\n     * Internal functions\r\n     */\r\n\r\n    function getOutstandingAllowancesData()\r\n        internal\r\n        view\r\n        returns (bytes memory)\r\n    {\r\n        uint256 count = 0;\r\n        bytes[] memory outstandingPairs;\r\n\r\n        for (uint256 i = 0; i <= payerCount; i++) {\r\n            address payer = payers[i];\r\n\r\n            for (uint256 j = 0; j <= payerPayeeCount[payer]; j++) {\r\n                address payee = payerPayees[payer][j];\r\n\r\n                if (isOutstanding(payer, payee)) {\r\n                    outstandingPairs[count] = abi.encode(payer, payee);\r\n                    count++;\r\n                }\r\n            }\r\n        }\r\n        return abi.encode(count, outstandingPairs);\r\n    }\r\n\r\n    function performAllowances(bytes memory _data) internal {\r\n        (uint256 count, bytes[] memory pairs) = abi.decode(\r\n            _data,\r\n            (uint256, bytes[])\r\n        );\r\n\r\n        for (uint256 i = 0; i < count; i++) {\r\n            bytes memory pair = pairs[i];\r\n            (address payer, address payee) = abi.decode(\r\n                pair,\r\n                (address, address)\r\n            );\r\n\r\n            if (isOutstanding(payer, payee)) {\r\n                payAllowance(payer, payee);\r\n            }\r\n        }\r\n    }\r\n\r\n    function isOutstanding(address _payer, address _payee)\r\n        internal\r\n        view\r\n        returns (bool)\r\n    {\r\n        Allowance memory allowance = allowances[_payer][_payee];\r\n        return\r\n            allowance.nextTimestamp > 0 &&\r\n            allowance.nextTimestamp < block.timestamp &&\r\n            allowance.amount <= payerBalances[_payer][allowance.token];\r\n    }\r\n\r\n    function payAllowance(address _payer, address _payee) internal {\r\n        require(\r\n            isOutstanding(_payer, _payee) == true,\r\n            \"Allowance isn't outstanding\"\r\n        );\r\n\r\n        Allowance memory allowance = allowances[_payer][_payee];\r\n        payerBalances[_payer][allowance.token] -= allowance.amount;\r\n        allowance.nextTimestamp += allowance.period;\r\n        IERC20(allowance.token).transferFrom(_payer, _payee, allowance.amount);\r\n    }\r\n\r\n    /**\r\n     * Public functions - Bulk\r\n     */\r\n\r\n    function settleOutstandingAllowances() public {\r\n        performAllowances(getOutstandingAllowancesData());\r\n    }\r\n\r\n    /**\r\n     * Public functions - Allowance management\r\n     */\r\n\r\n    function setAllowance(\r\n        address _payee,\r\n        uint256 _amount,\r\n        address _token,\r\n        uint256 _period,\r\n        uint256 _nextTimestamp\r\n    ) public {\r\n        bool isNewAllowance = allowances[msg.sender][_payee].period > 0;\r\n\r\n        allowances[msg.sender][_payee] = Allowance(\r\n            msg.sender,\r\n            _payee,\r\n            _amount,\r\n            _token,\r\n            _period,\r\n            _nextTimestamp\r\n        );\r\n\r\n        if (!registeredPayers[msg.sender]) {\r\n            payers.push(msg.sender);\r\n            payerCount++;\r\n            registeredPayers[msg.sender] = true;\r\n        }\r\n\r\n        if (!payerRegisteredPayees[msg.sender][_payee]) {\r\n            payerPayees[msg.sender].push(_payee);\r\n            payerPayeeCount[msg.sender]++;\r\n            payerRegisteredPayees[msg.sender][_payee] = true;\r\n        }\r\n\r\n        if (isNewAllowance) {\r\n            emit AllowanceCreated(\r\n                msg.sender,\r\n                _payee,\r\n                _amount,\r\n                _token,\r\n                _period,\r\n                _nextTimestamp\r\n            );\r\n        } else {\r\n            emit AllowanceUpdated(\r\n                msg.sender,\r\n                _payee,\r\n                _amount,\r\n                _token,\r\n                _period,\r\n                _nextTimestamp\r\n            );\r\n        }\r\n    }\r\n\r\n    function pauseAllowance(address _payee) public hasAllowanceWith(_payee) {\r\n        allowances[msg.sender][_payee].nextTimestamp = 0;\r\n\r\n        emit AllowancePaused(msg.sender, _payee);\r\n    }\r\n\r\n    function cancelAllowance(address _payee) public hasAllowanceWith(_payee) {\r\n        delete allowances[msg.sender][_payee];\r\n\r\n        emit AllowanceCancelled(msg.sender, _payee);\r\n    }\r\n\r\n    function pauseOwnAllowances() public {\r\n        for (uint256 i = 0; i < payerPayeeCount[msg.sender]; i++) {\r\n            pauseAllowance(payerPayees[msg.sender][i]);\r\n        }\r\n    }\r\n\r\n    function cancelOwnAllowances() public {\r\n        for (uint256 i = 0; i < payerPayeeCount[msg.sender]; i++) {\r\n            cancelAllowance(payerPayees[msg.sender][i]);\r\n        }\r\n    }\r\n\r\n    /**\r\n     * Public functions - Balance management\r\n     */\r\n    function topUp(address _token, uint256 _amount) public {\r\n        IERC20(_token).transferFrom(msg.sender, address(this), _amount);\r\n        payerBalances[msg.sender][_token] += _amount;\r\n\r\n        emit TopUp(msg.sender, _token, _amount);\r\n    }\r\n\r\n    function withdraw(address _token, uint256 _amount) public {\r\n        require(\r\n            _amount <= payerBalances[msg.sender][_token],\r\n            \"Not enough funds to withdraw\"\r\n        );\r\n        payerBalances[msg.sender][_token] -= _amount;\r\n        IERC20(_token).transfer(msg.sender, _amount);\r\n\r\n        emit Withdrawal(msg.sender, _token, _amount);\r\n    }\r\n}\r\n",
  "sourcePath": "C:\\Users\\fabio\\Projects\\kid-money\\contracts\\AllowanceV2.sol",
  "compiler": {
    "name": "solc",
    "version": "0.8.14+commit.80d49f37.Emscripten.clang"
  },
  "schemaVersion": "3.4.4",
  "updatedAt": "2022-05-29T22:01:23.141Z",
  "devdoc": {
    "kind": "dev",
    "methods": {
      "performUpkeep(bytes)": {
        "details": "The input to this method should not be trusted, and the caller of the method should not even be restricted to any single registry. Anyone should be able call it, and the input should be validated, there is no guarantee that the data passed in is the performData returned from checkUpkeep. This could happen due to malicious keepers, racing keepers, or simply a state change while the performUpkeep transaction is waiting for confirmation. Always validate the data passed in.",
        "params": {
          "performData": "is the data which was passed back from the checkData simulation. If it is encoded, it can easily be decoded into other types by calling `abi.decode`. This data should not be trusted, and should be validated against the contract's current state."
        }
      }
    },
    "version": 1
  },
  "userdoc": {
    "events": {
      "AllowanceCreated(address,address,uint256,address,uint256,uint256)": {
        "notice": "Events"
      }
    },
    "kind": "user",
    "methods": {
      "checkUpkeep(bytes)": {
        "notice": "Keepers compatibility"
      },
      "performUpkeep(bytes)": {
        "notice": "method that is actually executed by the keepers, via the registry. The data returned by the checkUpkeep simulation will be passed into this method to actually be executed."
      },
      "setAllowance(address,uint256,address,uint256,uint256)": {
        "notice": "Public functions - Allowance management"
      },
      "settleOutstandingAllowances()": {
        "notice": "Public functions - Bulk"
      },
      "topUp(address,uint256)": {
        "notice": "Public functions - Balance management"
      }
    },
    "version": 1
  }
}