{
  "contractName": "Allowance",
  "abi": [
    {
      "inputs": [
        {
          "internalType": "address",
          "name": "_token",
          "type": "address"
        },
        {
          "internalType": "address",
          "name": "_recipient",
          "type": "address"
        },
        {
          "internalType": "uint256",
          "name": "_amount",
          "type": "uint256"
        },
        {
          "internalType": "uint256",
          "name": "_period",
          "type": "uint256"
        },
        {
          "internalType": "uint256",
          "name": "_nextTimestamp",
          "type": "uint256"
        }
      ],
      "stateMutability": "nonpayable",
      "type": "constructor"
    },
    {
      "anonymous": false,
      "inputs": [
        {
          "indexed": true,
          "internalType": "address",
          "name": "previousOwner",
          "type": "address"
        },
        {
          "indexed": true,
          "internalType": "address",
          "name": "newOwner",
          "type": "address"
        }
      ],
      "name": "OwnershipTransferred",
      "type": "event"
    },
    {
      "inputs": [],
      "name": "amount",
      "outputs": [
        {
          "internalType": "uint256",
          "name": "",
          "type": "uint256"
        }
      ],
      "stateMutability": "view",
      "type": "function"
    },
    {
      "inputs": [],
      "name": "nextTimestamp",
      "outputs": [
        {
          "internalType": "uint256",
          "name": "",
          "type": "uint256"
        }
      ],
      "stateMutability": "view",
      "type": "function"
    },
    {
      "inputs": [],
      "name": "owner",
      "outputs": [
        {
          "internalType": "address",
          "name": "",
          "type": "address"
        }
      ],
      "stateMutability": "view",
      "type": "function"
    },
    {
      "inputs": [],
      "name": "period",
      "outputs": [
        {
          "internalType": "uint256",
          "name": "",
          "type": "uint256"
        }
      ],
      "stateMutability": "view",
      "type": "function"
    },
    {
      "inputs": [],
      "name": "recipient",
      "outputs": [
        {
          "internalType": "address",
          "name": "",
          "type": "address"
        }
      ],
      "stateMutability": "view",
      "type": "function"
    },
    {
      "inputs": [],
      "name": "renounceOwnership",
      "outputs": [],
      "stateMutability": "nonpayable",
      "type": "function"
    },
    {
      "inputs": [],
      "name": "token",
      "outputs": [
        {
          "internalType": "contract IERC20",
          "name": "",
          "type": "address"
        }
      ],
      "stateMutability": "view",
      "type": "function"
    },
    {
      "inputs": [
        {
          "internalType": "address",
          "name": "newOwner",
          "type": "address"
        }
      ],
      "name": "transferOwnership",
      "outputs": [],
      "stateMutability": "nonpayable",
      "type": "function"
    },
    {
      "inputs": [
        {
          "internalType": "bytes",
          "name": "",
          "type": "bytes"
        }
      ],
      "name": "checkUpkeep",
      "outputs": [
        {
          "internalType": "bool",
          "name": "upkeepNeeded",
          "type": "bool"
        },
        {
          "internalType": "bytes",
          "name": "performData",
          "type": "bytes"
        }
      ],
      "stateMutability": "view",
      "type": "function"
    },
    {
      "inputs": [
        {
          "internalType": "bytes",
          "name": "",
          "type": "bytes"
        }
      ],
      "name": "performUpkeep",
      "outputs": [],
      "stateMutability": "nonpayable",
      "type": "function"
    },
    {
      "inputs": [
        {
          "internalType": "address",
          "name": "_recipient",
          "type": "address"
        }
      ],
      "name": "setRecipient",
      "outputs": [],
      "stateMutability": "nonpayable",
      "type": "function"
    },
    {
      "inputs": [
        {
          "internalType": "uint256",
          "name": "_amount",
          "type": "uint256"
        }
      ],
      "name": "setAmount",
      "outputs": [],
      "stateMutability": "nonpayable",
      "type": "function"
    },
    {
      "inputs": [
        {
          "internalType": "uint256",
          "name": "_period",
          "type": "uint256"
        }
      ],
      "name": "setPeriod",
      "outputs": [],
      "stateMutability": "nonpayable",
      "type": "function"
    }
  ],
  "bytecode": "0x60806040523480156200001157600080fd5b506040516200116e3803806200116e83398181016040528101906200003791906200026a565b620000576200004b620000f960201b60201c565b6200010160201b60201c565b84600160006101000a81548173ffffffffffffffffffffffffffffffffffffffff021916908373ffffffffffffffffffffffffffffffffffffffff16021790555083600260006101000a81548173ffffffffffffffffffffffffffffffffffffffff021916908373ffffffffffffffffffffffffffffffffffffffff1602179055508260038190555081600481905550806005819055505050505050620002f2565b600033905090565b60008060009054906101000a900473ffffffffffffffffffffffffffffffffffffffff169050816000806101000a81548173ffffffffffffffffffffffffffffffffffffffff021916908373ffffffffffffffffffffffffffffffffffffffff1602179055508173ffffffffffffffffffffffffffffffffffffffff168173ffffffffffffffffffffffffffffffffffffffff167f8be0079c531659141344cd1fd0a4f28419497f9722a3daafe3b4186f6b6457e060405160405180910390a35050565b600080fd5b600073ffffffffffffffffffffffffffffffffffffffff82169050919050565b6000620001f782620001ca565b9050919050565b6200020981620001ea565b81146200021557600080fd5b50565b6000815190506200022981620001fe565b92915050565b6000819050919050565b62000244816200022f565b81146200025057600080fd5b50565b600081519050620002648162000239565b92915050565b600080600080600060a08688031215620002895762000288620001c5565b5b6000620002998882890162000218565b9550506020620002ac8882890162000218565b9450506040620002bf8882890162000253565b9350506060620002d28882890162000253565b9250506080620002e58882890162000253565b9150509295509295909350565b610e6c80620003026000396000f3fe608060405234801561001057600080fd5b50600436106100cf5760003560e01c80636e04ff0d1161008c578063aa8c217c11610066578063aa8c217c146101d9578063ef78d4fd146101f7578063f2fde38b14610215578063fc0c546a14610231576100cf565b80636e04ff0d14610180578063715018a6146101b15780638da5cb5b146101bb576100cf565b80630f3a9f65146100d4578063271f88b4146100f0578063357e951f1461010c5780633bbed4a01461012a5780634585e33b1461014657806366d003ac14610162575b600080fd5b6100ee60048036038101906100e99190610872565b61024f565b005b61010a60048036038101906101059190610872565b6102d5565b005b61011461035b565b60405161012191906108ae565b60405180910390f35b610144600480360381019061013f9190610927565b610361565b005b610160600480360381019061015b91906109b9565b610421565b005b61016a610542565b6040516101779190610a15565b60405180910390f35b61019a600480360381019061019591906109b9565b610568565b6040516101a8929190610ae4565b60405180910390f35b6101b961058c565b005b6101c3610614565b6040516101d09190610a15565b60405180910390f35b6101e161063d565b6040516101ee91906108ae565b60405180910390f35b6101ff610643565b60405161020c91906108ae565b60405180910390f35b61022f600480360381019061022a9190610927565b610649565b005b610239610740565b6040516102469190610b73565b60405180910390f35b610257610766565b73ffffffffffffffffffffffffffffffffffffffff16610275610614565b73ffffffffffffffffffffffffffffffffffffffff16146102cb576040517f08c379a00000000000000000000000000000000000000000000000000000000081526004016102c290610beb565b60405180910390fd5b8060048190555050565b6102dd610766565b73ffffffffffffffffffffffffffffffffffffffff166102fb610614565b73ffffffffffffffffffffffffffffffffffffffff1614610351576040517f08c379a000000000000000000000000000000000000000000000000000000000815260040161034890610beb565b60405180910390fd5b8060038190555050565b60055481565b610369610766565b73ffffffffffffffffffffffffffffffffffffffff16610387610614565b73ffffffffffffffffffffffffffffffffffffffff16146103dd576040517f08c379a00000000000000000000000000000000000000000000000000000000081526004016103d490610beb565b60405180910390fd5b80600260006101000a81548173ffffffffffffffffffffffffffffffffffffffff021916908373ffffffffffffffffffffffffffffffffffffffff16021790555050565b6005544211610465576040517f08c379a000000000000000000000000000000000000000000000000000000000815260040161045c90610c7d565b60405180910390fd5b600454426104739190610ccc565b600581905550600160009054906101000a900473ffffffffffffffffffffffffffffffffffffffff1673ffffffffffffffffffffffffffffffffffffffff1663a9059cbb600260009054906101000a900473ffffffffffffffffffffffffffffffffffffffff166003546040518363ffffffff1660e01b81526004016104fa929190610d22565b6020604051808303816000875af1158015610519573d6000803e3d6000fd5b505050506040513d601f19601f8201168201806040525081019061053d9190610d77565b505050565b600260009054906101000a900473ffffffffffffffffffffffffffffffffffffffff1681565b60006060600554421160405180602001604052806000815250915091509250929050565b610594610766565b73ffffffffffffffffffffffffffffffffffffffff166105b2610614565b73ffffffffffffffffffffffffffffffffffffffff1614610608576040517f08c379a00000000000000000000000000000000000000000000000000000000081526004016105ff90610beb565b60405180910390fd5b610612600061076e565b565b60008060009054906101000a900473ffffffffffffffffffffffffffffffffffffffff16905090565b60035481565b60045481565b610651610766565b73ffffffffffffffffffffffffffffffffffffffff1661066f610614565b73ffffffffffffffffffffffffffffffffffffffff16146106c5576040517f08c379a00000000000000000000000000000000000000000000000000000000081526004016106bc90610beb565b60405180910390fd5b600073ffffffffffffffffffffffffffffffffffffffff168173ffffffffffffffffffffffffffffffffffffffff1603610734576040517f08c379a000000000000000000000000000000000000000000000000000000000815260040161072b90610e16565b60405180910390fd5b61073d8161076e565b50565b600160009054906101000a900473ffffffffffffffffffffffffffffffffffffffff1681565b600033905090565b60008060009054906101000a900473ffffffffffffffffffffffffffffffffffffffff169050816000806101000a81548173ffffffffffffffffffffffffffffffffffffffff021916908373ffffffffffffffffffffffffffffffffffffffff1602179055508173ffffffffffffffffffffffffffffffffffffffff168173ffffffffffffffffffffffffffffffffffffffff167f8be0079c531659141344cd1fd0a4f28419497f9722a3daafe3b4186f6b6457e060405160405180910390a35050565b600080fd5b600080fd5b6000819050919050565b61084f8161083c565b811461085a57600080fd5b50565b60008135905061086c81610846565b92915050565b60006020828403121561088857610887610832565b5b60006108968482850161085d565b91505092915050565b6108a88161083c565b82525050565b60006020820190506108c3600083018461089f565b92915050565b600073ffffffffffffffffffffffffffffffffffffffff82169050919050565b60006108f4826108c9565b9050919050565b610904816108e9565b811461090f57600080fd5b50565b600081359050610921816108fb565b92915050565b60006020828403121561093d5761093c610832565b5b600061094b84828501610912565b91505092915050565b600080fd5b600080fd5b600080fd5b60008083601f84011261097957610978610954565b5b8235905067ffffffffffffffff81111561099657610995610959565b5b6020830191508360018202830111156109b2576109b161095e565b5b9250929050565b600080602083850312156109d0576109cf610832565b5b600083013567ffffffffffffffff8111156109ee576109ed610837565b5b6109fa85828601610963565b92509250509250929050565b610a0f816108e9565b82525050565b6000602082019050610a2a6000830184610a06565b92915050565b60008115159050919050565b610a4581610a30565b82525050565b600081519050919050565b600082825260208201905092915050565b60005b83811015610a85578082015181840152602081019050610a6a565b83811115610a94576000848401525b50505050565b6000601f19601f8301169050919050565b6000610ab682610a4b565b610ac08185610a56565b9350610ad0818560208601610a67565b610ad981610a9a565b840191505092915050565b6000604082019050610af96000830185610a3c565b8181036020830152610b0b8184610aab565b90509392505050565b6000819050919050565b6000610b39610b34610b2f846108c9565b610b14565b6108c9565b9050919050565b6000610b4b82610b1e565b9050919050565b6000610b5d82610b40565b9050919050565b610b6d81610b52565b82525050565b6000602082019050610b886000830184610b64565b92915050565b600082825260208201905092915050565b7f4f776e61626c653a2063616c6c6572206973206e6f7420746865206f776e6572600082015250565b6000610bd5602083610b8e565b9150610be082610b9f565b602082019050919050565b60006020820190508181036000830152610c0481610bc8565b9050919050565b7f4e65787420616c6c6f77616e63652074696d657374616d70206e6f742072656160008201527f6368656400000000000000000000000000000000000000000000000000000000602082015250565b6000610c67602483610b8e565b9150610c7282610c0b565b604082019050919050565b60006020820190508181036000830152610c9681610c5a565b9050919050565b7f4e487b7100000000000000000000000000000000000000000000000000000000600052601160045260246000fd5b6000610cd78261083c565b9150610ce28361083c565b9250827fffffffffffffffffffffffffffffffffffffffffffffffffffffffffffffffff03821115610d1757610d16610c9d565b5b828201905092915050565b6000604082019050610d376000830185610a06565b610d44602083018461089f565b9392505050565b610d5481610a30565b8114610d5f57600080fd5b50565b600081519050610d7181610d4b565b92915050565b600060208284031215610d8d57610d8c610832565b5b6000610d9b84828501610d62565b91505092915050565b7f4f776e61626c653a206e6577206f776e657220697320746865207a65726f206160008201527f6464726573730000000000000000000000000000000000000000000000000000602082015250565b6000610e00602683610b8e565b9150610e0b82610da4565b604082019050919050565b60006020820190508181036000830152610e2f81610df3565b905091905056fea2646970667358221220644f8e09f7ef70538670a8ae1e386570a1c8c61fbbc9878a873707b24d24b3ea64736f6c634300080e0033",
  "immutableReferences": {},
  "source": "// SPDX-License-Identifier: GPL-3.0\r\n\r\npragma solidity >=0.7.0 <0.9.0;\r\n\r\nimport \"@chainlink/contracts/src/v0.8/KeeperCompatible.sol\";\r\nimport \"@openzeppelin/contracts/access/Ownable.sol\";\r\nimport \"@openzeppelin/contracts/token/ERC20/IERC20.sol\";\r\n\r\ncontract Allowance is KeeperCompatibleInterface, Ownable {\r\n    IERC20 public token;\r\n    address public recipient;\r\n    uint256 public amount;\r\n    uint256 public period;\r\n    uint256 public nextTimestamp;\r\n\r\n    constructor(\r\n        address _token,\r\n        address _recipient,\r\n        uint256 _amount,\r\n        uint256 _period,\r\n        uint256 _nextTimestamp\r\n    ) {\r\n        token = IERC20(_token);\r\n        recipient = _recipient;\r\n        amount = _amount;\r\n        period = _period;\r\n        nextTimestamp = _nextTimestamp;\r\n    }\r\n\r\n    function checkUpkeep(\r\n        bytes calldata /* checkData */\r\n    )\r\n        external\r\n        view\r\n        override\r\n        returns (bool upkeepNeeded, bytes memory performData)\r\n    {\r\n        return (block.timestamp > nextTimestamp, bytes(\"\"));\r\n    }\r\n\r\n    function performUpkeep(\r\n        bytes calldata /* performData */\r\n    ) external override {\r\n        require(\r\n            block.timestamp > nextTimestamp,\r\n            \"Next allowance timestamp not reached\"\r\n        );\r\n        nextTimestamp = block.timestamp + period;\r\n        token.transfer(recipient, amount);\r\n    }\r\n\r\n    // Admin functions\r\n    function setRecipient(address _recipient) public onlyOwner {\r\n        recipient = _recipient;\r\n    }\r\n\r\n    function setAmount(uint256 _amount) public onlyOwner {\r\n        amount = _amount;\r\n    }\r\n\r\n    function setPeriod(uint256 _period) public onlyOwner {\r\n        period = _period;\r\n    }\r\n}\r\n",
  "sourcePath": "C:\\Users\\fabio\\Projects\\kid-money\\contracts\\Allowance.sol",
  "compiler": {
    "name": "solc",
    "version": "0.8.14+commit.80d49f37.Emscripten.clang"
  },
  "schemaVersion": "3.4.4",
  "updatedAt": "2022-05-29T22:01:23.129Z",
  "devdoc": {
    "kind": "dev",
    "methods": {
      "owner()": {
        "details": "Returns the address of the current owner."
      },
      "renounceOwnership()": {
        "details": "Leaves the contract without owner. It will not be possible to call `onlyOwner` functions anymore. Can only be called by the current owner. NOTE: Renouncing ownership will leave the contract without an owner, thereby removing any functionality that is only available to the owner."
      },
      "transferOwnership(address)": {
        "details": "Transfers ownership of the contract to a new account (`newOwner`). Can only be called by the current owner."
      }
    },
    "version": 1
  },
  "userdoc": {
    "kind": "user",
    "methods": {},
    "version": 1
  }
}