{
  "contractName": "Bank",
  "abi": [
    {
      "inputs": [
        {
          "internalType": "address",
          "name": "_tokenAddress",
          "type": "address"
        },
        {
          "internalType": "uint256",
          "name": "_compoundPercentage",
          "type": "uint256"
        },
        {
          "internalType": "uint256",
          "name": "_compoundPeriod",
          "type": "uint256"
        },
        {
          "internalType": "uint256",
          "name": "_maxCompoundReturn",
          "type": "uint256"
        }
      ],
      "stateMutability": "nonpayable",
      "type": "constructor"
    },
    {
      "anonymous": false,
      "inputs": [
        {
          "indexed": true,
          "internalType": "address",
          "name": "account",
          "type": "address"
        },
        {
          "indexed": false,
          "internalType": "uint256",
          "name": "amount",
          "type": "uint256"
        }
      ],
      "name": "Compound",
      "type": "event"
    },
    {
      "anonymous": false,
      "inputs": [
        {
          "indexed": false,
          "internalType": "uint256",
          "name": "previousPercentage",
          "type": "uint256"
        },
        {
          "indexed": false,
          "internalType": "uint256",
          "name": "newPercentage",
          "type": "uint256"
        }
      ],
      "name": "CompoundPercentageChanged",
      "type": "event"
    },
    {
      "anonymous": false,
      "inputs": [
        {
          "indexed": false,
          "internalType": "uint256",
          "name": "previousPeriod",
          "type": "uint256"
        },
        {
          "indexed": false,
          "internalType": "uint256",
          "name": "newPeriod",
          "type": "uint256"
        }
      ],
      "name": "CompoundPeriodChanged",
      "type": "event"
    },
    {
      "anonymous": false,
      "inputs": [
        {
          "indexed": true,
          "internalType": "address",
          "name": "account",
          "type": "address"
        },
        {
          "indexed": false,
          "internalType": "uint256",
          "name": "amount",
          "type": "uint256"
        }
      ],
      "name": "Deposit",
      "type": "event"
    },
    {
      "anonymous": false,
      "inputs": [
        {
          "indexed": true,
          "internalType": "address",
          "name": "previousOwner",
          "type": "address"
        },
        {
          "indexed": true,
          "internalType": "address",
          "name": "newOwner",
          "type": "address"
        }
      ],
      "name": "OwnerChanged",
      "type": "event"
    },
    {
      "anonymous": false,
      "inputs": [
        {
          "indexed": true,
          "internalType": "address",
          "name": "account",
          "type": "address"
        },
        {
          "indexed": false,
          "internalType": "uint256",
          "name": "amount",
          "type": "uint256"
        }
      ],
      "name": "Save",
      "type": "event"
    },
    {
      "anonymous": false,
      "inputs": [
        {
          "indexed": true,
          "internalType": "address",
          "name": "previousToken",
          "type": "address"
        },
        {
          "indexed": true,
          "internalType": "address",
          "name": "newToken",
          "type": "address"
        }
      ],
      "name": "TokenChanged",
      "type": "event"
    },
    {
      "anonymous": false,
      "inputs": [
        {
          "indexed": true,
          "internalType": "address",
          "name": "account",
          "type": "address"
        },
        {
          "indexed": false,
          "internalType": "uint256",
          "name": "amount",
          "type": "uint256"
        }
      ],
      "name": "Unsave",
      "type": "event"
    },
    {
      "anonymous": false,
      "inputs": [
        {
          "indexed": true,
          "internalType": "address",
          "name": "account",
          "type": "address"
        },
        {
          "indexed": false,
          "internalType": "uint256",
          "name": "amount",
          "type": "uint256"
        }
      ],
      "name": "Withdraw",
      "type": "event"
    },
    {
      "inputs": [],
      "name": "compoundPercentage",
      "outputs": [
        {
          "internalType": "uint256",
          "name": "",
          "type": "uint256"
        }
      ],
      "stateMutability": "view",
      "type": "function",
      "constant": true
    },
    {
      "inputs": [],
      "name": "compoundPeriod",
      "outputs": [
        {
          "internalType": "uint256",
          "name": "",
          "type": "uint256"
        }
      ],
      "stateMutability": "view",
      "type": "function",
      "constant": true
    },
    {
      "inputs": [],
      "name": "maxCompoundReturn",
      "outputs": [
        {
          "internalType": "uint256",
          "name": "",
          "type": "uint256"
        }
      ],
      "stateMutability": "view",
      "type": "function",
      "constant": true
    },
    {
      "inputs": [],
      "name": "owner",
      "outputs": [
        {
          "internalType": "address",
          "name": "",
          "type": "address"
        }
      ],
      "stateMutability": "view",
      "type": "function",
      "constant": true
    },
    {
      "inputs": [],
      "name": "tokenAddress",
      "outputs": [
        {
          "internalType": "address",
          "name": "",
          "type": "address"
        }
      ],
      "stateMutability": "view",
      "type": "function",
      "constant": true
    },
    {
      "inputs": [
        {
          "internalType": "address",
          "name": "_owner",
          "type": "address"
        }
      ],
      "name": "setOwner",
      "outputs": [],
      "stateMutability": "nonpayable",
      "type": "function"
    },
    {
      "inputs": [
        {
          "internalType": "uint256",
          "name": "_compoundPercentage",
          "type": "uint256"
        }
      ],
      "name": "setCompoundPercentage",
      "outputs": [],
      "stateMutability": "nonpayable",
      "type": "function"
    },
    {
      "inputs": [
        {
          "internalType": "uint256",
          "name": "_compoundPeriod",
          "type": "uint256"
        }
      ],
      "name": "setCompoundPeriod",
      "outputs": [],
      "stateMutability": "nonpayable",
      "type": "function"
    },
    {
      "inputs": [
        {
          "internalType": "uint256",
          "name": "_amount",
          "type": "uint256"
        }
      ],
      "name": "deposit",
      "outputs": [],
      "stateMutability": "nonpayable",
      "type": "function"
    },
    {
      "inputs": [
        {
          "internalType": "uint256",
          "name": "_amount",
          "type": "uint256"
        }
      ],
      "name": "withdraw",
      "outputs": [],
      "stateMutability": "nonpayable",
      "type": "function"
    },
    {
      "inputs": [
        {
          "internalType": "uint256",
          "name": "_amount",
          "type": "uint256"
        }
      ],
      "name": "save",
      "outputs": [],
      "stateMutability": "nonpayable",
      "type": "function"
    },
    {
      "inputs": [
        {
          "internalType": "uint256",
          "name": "_amount",
          "type": "uint256"
        }
      ],
      "name": "unsave",
      "outputs": [],
      "stateMutability": "nonpayable",
      "type": "function"
    },
    {
      "inputs": [],
      "name": "compound",
      "outputs": [],
      "stateMutability": "nonpayable",
      "type": "function"
    },
    {
      "inputs": [],
      "name": "getAccount",
      "outputs": [
        {
          "components": [
            {
              "internalType": "uint256",
              "name": "balance",
              "type": "uint256"
            },
            {
              "internalType": "uint256",
              "name": "savings",
              "type": "uint256"
            },
            {
              "internalType": "uint256",
              "name": "savingsDate",
              "type": "uint256"
            }
          ],
          "internalType": "struct Bank.Account",
          "name": "_account",
          "type": "tuple"
        }
      ],
      "stateMutability": "view",
      "type": "function",
      "constant": true
    },
    {
      "inputs": [],
      "name": "getBalance",
      "outputs": [
        {
          "internalType": "uint256",
          "name": "_balance",
          "type": "uint256"
        }
      ],
      "stateMutability": "view",
      "type": "function",
      "constant": true
    },
    {
      "inputs": [],
      "name": "getSavings",
      "outputs": [
        {
          "internalType": "uint256",
          "name": "_savings",
          "type": "uint256"
        }
      ],
      "stateMutability": "view",
      "type": "function",
      "constant": true
    },
    {
      "inputs": [],
      "name": "getSavingsDate",
      "outputs": [
        {
          "internalType": "uint256",
          "name": "_date",
          "type": "uint256"
        }
      ],
      "stateMutability": "view",
      "type": "function",
      "constant": true
    }
  ],
  "bytecode": "0x60806040523480156200001157600080fd5b50604051620018bb380380620018bb83398181016040528101906200003791906200017c565b336000806101000a81548173ffffffffffffffffffffffffffffffffffffffff021916908373ffffffffffffffffffffffffffffffffffffffff16021790555083600160006101000a81548173ffffffffffffffffffffffffffffffffffffffff021916908373ffffffffffffffffffffffffffffffffffffffff16021790555082600281905550816003819055508060048190555050505050620001ee565b600080fd5b600073ffffffffffffffffffffffffffffffffffffffff82169050919050565b60006200010982620000dc565b9050919050565b6200011b81620000fc565b81146200012757600080fd5b50565b6000815190506200013b8162000110565b92915050565b6000819050919050565b620001568162000141565b81146200016257600080fd5b50565b60008151905062000176816200014b565b92915050565b60008060008060808587031215620001995762000198620000d7565b5b6000620001a9878288016200012a565b9450506020620001bc8782880162000165565b9350506040620001cf8782880162000165565b9250506060620001e28782880162000165565b91505092959194509250565b6116bd80620001fe6000396000f3fe608060405234801561001057600080fd5b506004361061010b5760003560e01c80636bc832e4116100a2578063a795c31b11610071578063a795c31b1461026e578063b6b55f251461028c578063d11c4455146102a8578063db613e81146102c4578063f69e2046146102e25761010b565b80636bc832e4146101f85780638da5cb5b146102145780639d76ea5814610232578063a52952e3146102505761010b565b80632e1a7d4d116100de5780632e1a7d4d1461018257806335a0f51e1461019e5780633d47b41c146101bc578063647f3d18146101da5761010b565b806308871d8e1461011057806312065fe01461012c57806313af40351461014a5780631b86202714610166575b600080fd5b61012a600480360381019061012591906110ed565b6102ec565b005b6101346103bf565b6040516101419190611129565b60405180910390f35b610164600480360381019061015f91906111a2565b610409565b005b610180600480360381019061017b91906110ed565b610554565b005b61019c600480360381019061019791906110ed565b610725565b005b6101a66108e2565b6040516101b39190611129565b60405180910390f35b6101c46108e8565b6040516101d19190611129565b60405180910390f35b6101e26108ee565b6040516101ef9190611129565b60405180910390f35b610212600480360381019061020d91906110ed565b610938565b005b61021c610a0b565b60405161022991906111de565b60405180910390f35b61023a610a2f565b60405161024791906111de565b60405180910390f35b610258610a55565b6040516102659190611129565b60405180910390f35b610276610a5b565b6040516102839190611129565b60405180910390f35b6102a660048036038101906102a191906110ed565b610aa5565b005b6102c260048036038101906102bd91906110ed565b610bdd565b005b6102cc610df8565b6040516102d9919061124a565b60405180910390f35b6102ea610e6d565b005b60008054906101000a900473ffffffffffffffffffffffffffffffffffffffff1673ffffffffffffffffffffffffffffffffffffffff163373ffffffffffffffffffffffffffffffffffffffff161461037a576040517f08c379a0000000000000000000000000000000000000000000000000000000008152600401610371906112c2565b60405180910390fd5b7fcc3653e555c8788a19b9703b10039b2ed633fa6deb7755c321360f94697c6d24600354826040516103ad9291906112e2565b60405180910390a18060038190555050565b6000600560003373ffffffffffffffffffffffffffffffffffffffff1673ffffffffffffffffffffffffffffffffffffffff16815260200190815260200160002060000154905090565b60008054906101000a900473ffffffffffffffffffffffffffffffffffffffff1673ffffffffffffffffffffffffffffffffffffffff163373ffffffffffffffffffffffffffffffffffffffff1614610497576040517f08c379a000000000000000000000000000000000000000000000000000000000815260040161048e906112c2565b60405180910390fd5b8073ffffffffffffffffffffffffffffffffffffffff1660008054906101000a900473ffffffffffffffffffffffffffffffffffffffff1673ffffffffffffffffffffffffffffffffffffffff167fb532073b38c83145e3e5135377a08bf9aab55bc0fd7c1179cd4fb995d2a5159c60405160405180910390a3806000806101000a81548173ffffffffffffffffffffffffffffffffffffffff021916908373ffffffffffffffffffffffffffffffffffffffff16021790555050565b8080600560003373ffffffffffffffffffffffffffffffffffffffff1673ffffffffffffffffffffffffffffffffffffffff1681526020019081526020016000206000015410156105da576040517f08c379a00000000000000000000000000000000000000000000000000000000081526004016105d190611357565b60405180910390fd5b81600560003373ffffffffffffffffffffffffffffffffffffffff1673ffffffffffffffffffffffffffffffffffffffff168152602001908152602001600020600001600082825461062c91906113a6565b9250508190555081600560003373ffffffffffffffffffffffffffffffffffffffff1673ffffffffffffffffffffffffffffffffffffffff168152602001908152602001600020600101600082825461068591906113da565b9250508190555042600560003373ffffffffffffffffffffffffffffffffffffffff1673ffffffffffffffffffffffffffffffffffffffff168152602001908152602001600020600201819055503373ffffffffffffffffffffffffffffffffffffffff167f5a3e025ad8b0ffc3940134b57218ebd90cfa0ed8a0ec0fdd53be572c480cf2cd836040516107199190611129565b60405180910390a25050565b8080600560003373ffffffffffffffffffffffffffffffffffffffff1673ffffffffffffffffffffffffffffffffffffffff1681526020019081526020016000206000015410156107ab576040517f08c379a00000000000000000000000000000000000000000000000000000000081526004016107a290611357565b60405180910390fd5b60006107b5611067565b90508073ffffffffffffffffffffffffffffffffffffffff1663a9059cbb33856040518363ffffffff1660e01b81526004016107f2929190611430565b6020604051808303816000875af1158015610811573d6000803e3d6000fd5b505050506040513d601f19601f820116820180604052508101906108359190611491565b5082600560003373ffffffffffffffffffffffffffffffffffffffff1673ffffffffffffffffffffffffffffffffffffffff168152602001908152602001600020600001600082825461088891906113a6565b925050819055503373ffffffffffffffffffffffffffffffffffffffff167f884edad9ce6fa2440d8a54cc123490eb96d2768479d49ff9c7366125a9424364846040516108d59190611129565b60405180910390a2505050565b60045481565b60025481565b6000600560003373ffffffffffffffffffffffffffffffffffffffff1673ffffffffffffffffffffffffffffffffffffffff16815260200190815260200160002060020154905090565b60008054906101000a900473ffffffffffffffffffffffffffffffffffffffff1673ffffffffffffffffffffffffffffffffffffffff163373ffffffffffffffffffffffffffffffffffffffff16146109c6576040517f08c379a00000000000000000000000000000000000000000000000000000000081526004016109bd906112c2565b60405180910390fd5b7f8dc56a1b496e14d2f5e1b2189411617746b140c97d50ac671f0e19711b6ed0cf600254826040516109f99291906112e2565b60405180910390a18060028190555050565b60008054906101000a900473ffffffffffffffffffffffffffffffffffffffff1681565b600160009054906101000a900473ffffffffffffffffffffffffffffffffffffffff1681565b60035481565b6000600560003373ffffffffffffffffffffffffffffffffffffffff1673ffffffffffffffffffffffffffffffffffffffff16815260200190815260200160002060010154905090565b6000610aaf611067565b90508073ffffffffffffffffffffffffffffffffffffffff166323b872dd3330856040518463ffffffff1660e01b8152600401610aee939291906114be565b6020604051808303816000875af1158015610b0d573d6000803e3d6000fd5b505050506040513d601f19601f82011682018060405250810190610b319190611491565b5081600560003373ffffffffffffffffffffffffffffffffffffffff1673ffffffffffffffffffffffffffffffffffffffff1681526020019081526020016000206000016000828254610b8491906113da565b925050819055503373ffffffffffffffffffffffffffffffffffffffff167fe1fffcc4923d04b559f4d29a8bfc6cda04eb5b0d3c460751c2402c5c5cc9109c83604051610bd19190611129565b60405180910390a25050565b8080600560003373ffffffffffffffffffffffffffffffffffffffff1673ffffffffffffffffffffffffffffffffffffffff168152602001908152602001600020600101541015610c63576040517f08c379a0000000000000000000000000000000000000000000000000000000008152600401610c5a90611541565b60405180910390fd5b600354600560003373ffffffffffffffffffffffffffffffffffffffff1673ffffffffffffffffffffffffffffffffffffffff16815260200190815260200160002060020154610cb391906113da565b4211610cf4576040517f08c379a0000000000000000000000000000000000000000000000000000000008152600401610ceb906115ad565b60405180910390fd5b81600560003373ffffffffffffffffffffffffffffffffffffffff1673ffffffffffffffffffffffffffffffffffffffff1681526020019081526020016000206000016000828254610d4691906113da565b9250508190555081600560003373ffffffffffffffffffffffffffffffffffffffff1673ffffffffffffffffffffffffffffffffffffffff1681526020019081526020016000206001016000828254610d9f91906113a6565b925050819055503373ffffffffffffffffffffffffffffffffffffffff167fba2505d42b89ca6f144a2e97a04e28fceb1cb96dabe61a8fb4dcc327772561fc83604051610dec9190611129565b60405180910390a25050565b610e00611091565b600560003373ffffffffffffffffffffffffffffffffffffffff1673ffffffffffffffffffffffffffffffffffffffff1681526020019081526020016000206040518060600160405290816000820154815260200160018201548152602001600282015481525050905090565b600354600560003373ffffffffffffffffffffffffffffffffffffffff1673ffffffffffffffffffffffffffffffffffffffff16815260200190815260200160002060020154610ebd91906113da565b4211610efe576040517f08c379a0000000000000000000000000000000000000000000000000000000008152600401610ef5906115ad565b60405180910390fd5b60006002546064600560003373ffffffffffffffffffffffffffffffffffffffff1673ffffffffffffffffffffffffffffffffffffffff16815260200190815260200160002060010154610f5291906115fc565b610f5c919061162d565b905060006004548211610f6f5781610f73565b6004545b905080600560003373ffffffffffffffffffffffffffffffffffffffff1673ffffffffffffffffffffffffffffffffffffffff1681526020019081526020016000206001016000828254610fc791906113da565b9250508190555042600560003373ffffffffffffffffffffffffffffffffffffffff1673ffffffffffffffffffffffffffffffffffffffff168152602001908152602001600020600201819055503373ffffffffffffffffffffffffffffffffffffffff167f169f1815ebdea059aac3bb00ec9a9594c7a5ffcb64a17e8392b5d84909a145568260405161105b9190611129565b60405180910390a25050565b6000600160009054906101000a900473ffffffffffffffffffffffffffffffffffffffff16905090565b60405180606001604052806000815260200160008152602001600081525090565b600080fd5b6000819050919050565b6110ca816110b7565b81146110d557600080fd5b50565b6000813590506110e7816110c1565b92915050565b600060208284031215611103576111026110b2565b5b6000611111848285016110d8565b91505092915050565b611123816110b7565b82525050565b600060208201905061113e600083018461111a565b92915050565b600073ffffffffffffffffffffffffffffffffffffffff82169050919050565b600061116f82611144565b9050919050565b61117f81611164565b811461118a57600080fd5b50565b60008135905061119c81611176565b92915050565b6000602082840312156111b8576111b76110b2565b5b60006111c68482850161118d565b91505092915050565b6111d881611164565b82525050565b60006020820190506111f360008301846111cf565b92915050565b611202816110b7565b82525050565b60608201600082015161121e60008501826111f9565b50602082015161123160208501826111f9565b50604082015161124460408501826111f9565b50505050565b600060608201905061125f6000830184611208565b92915050565b600082825260208201905092915050565b7f43616c6c6572206973206e6f74206f776e657200000000000000000000000000600082015250565b60006112ac601383611265565b91506112b782611276565b602082019050919050565b600060208201905081810360008301526112db8161129f565b9050919050565b60006040820190506112f7600083018561111a565b611304602083018461111a565b9392505050565b7f42616c616e636520746f6f206c6f770000000000000000000000000000000000600082015250565b6000611341600f83611265565b915061134c8261130b565b602082019050919050565b6000602082019050818103600083015261137081611334565b9050919050565b7f4e487b7100000000000000000000000000000000000000000000000000000000600052601160045260246000fd5b60006113b1826110b7565b91506113bc836110b7565b9250828210156113cf576113ce611377565b5b828203905092915050565b60006113e5826110b7565b91506113f0836110b7565b9250827fffffffffffffffffffffffffffffffffffffffffffffffffffffffffffffffff0382111561142557611424611377565b5b828201905092915050565b600060408201905061144560008301856111cf565b611452602083018461111a565b9392505050565b60008115159050919050565b61146e81611459565b811461147957600080fd5b50565b60008151905061148b81611465565b92915050565b6000602082840312156114a7576114a66110b2565b5b60006114b58482850161147c565b91505092915050565b60006060820190506114d360008301866111cf565b6114e060208301856111cf565b6114ed604083018461111a565b949350505050565b7f536176696e677320746f6f206c6f770000000000000000000000000000000000600082015250565b600061152b600f83611265565b9150611536826114f5565b602082019050919050565b6000602082019050818103600083015261155a8161151e565b9050919050565b7f536176696e6773206c6f636b20706572696f64206e6f74206f76657220796574600082015250565b6000611597602083611265565b91506115a282611561565b602082019050919050565b600060208201905081810360008301526115c68161158a565b9050919050565b7f4e487b7100000000000000000000000000000000000000000000000000000000600052601260045260246000fd5b6000611607826110b7565b9150611612836110b7565b925082611622576116216115cd565b5b828204905092915050565b6000611638826110b7565b9150611643836110b7565b9250817fffffffffffffffffffffffffffffffffffffffffffffffffffffffffffffffff048311821515161561167c5761167b611377565b5b82820290509291505056fea26469706673582212209ed8774853cffb62e160361ae30ae098f34dcc4e0f7af01261c451d740689f6c64736f6c634300080b0033",
  "immutableReferences": {},
  "source": "// SPDX-License-Identifier: GPL-3.0\r\n\r\npragma solidity >=0.7.0 <0.9.0;\r\n\r\nimport \"@openzeppelin/contracts/token/ERC20/IERC20.sol\";\r\n\r\n/**\r\n * @title Bank\r\n * @dev Store tokens and compound savings\r\n */\r\ncontract Bank {\r\n    // ------------------------------------------------------------------\r\n    // config\r\n\r\n    address public owner;\r\n    address public tokenAddress;\r\n    uint256 public compoundPercentage;\r\n    uint256 public compoundPeriod;\r\n    uint256 public maxCompoundReturn;\r\n\r\n    /**\r\n     * @dev Set contract deployer as owner\r\n     * @param _tokenAddress ERC20 token address\r\n     * @param _compoundPercentage savings compounding percentage\r\n     * @param _compoundPeriod seconds since last savings before compounding\r\n     * @param _maxCompoundReturn maximum amount of compounding on savings\r\n     */\r\n    constructor(\r\n        address _tokenAddress,\r\n        uint256 _compoundPercentage,\r\n        uint256 _compoundPeriod,\r\n        uint256 _maxCompoundReturn\r\n    ) {\r\n        owner = msg.sender;\r\n        tokenAddress = _tokenAddress;\r\n        compoundPercentage = _compoundPercentage;\r\n        compoundPeriod = _compoundPeriod;\r\n        maxCompoundReturn = _maxCompoundReturn;\r\n    }\r\n\r\n    // ------------------------------------------------------------------\r\n    // structs\r\n\r\n    struct Account {\r\n        uint256 balance;\r\n        uint256 savings;\r\n        uint256 savingsDate;\r\n    }\r\n\r\n    // ------------------------------------------------------------------\r\n    // state\r\n\r\n    mapping(address => Account) private accounts;\r\n\r\n    // ------------------------------------------------------------------\r\n    // owner events\r\n\r\n    event OwnerChanged(address indexed previousOwner, address indexed newOwner);\r\n    event TokenChanged(address indexed previousToken, address indexed newToken);\r\n    event CompoundPercentageChanged(\r\n        uint256 previousPercentage,\r\n        uint256 newPercentage\r\n    );\r\n    event CompoundPeriodChanged(uint256 previousPeriod, uint256 newPeriod);\r\n\r\n    // ------------------------------------------------------------------\r\n    // user events\r\n\r\n    event Deposit(address indexed account, uint256 amount);\r\n    event Withdraw(address indexed account, uint256 amount);\r\n    event Save(address indexed account, uint256 amount);\r\n    event Unsave(address indexed account, uint256 amount);\r\n    event Compound(address indexed account, uint256 amount);\r\n\r\n    // ------------------------------------------------------------------\r\n    // modifiers\r\n\r\n    modifier isOwner() {\r\n        require(msg.sender == owner, \"Caller is not owner\");\r\n        _;\r\n    }\r\n\r\n    modifier hasBalance(uint256 _amount) {\r\n        require(accounts[msg.sender].balance >= _amount, \"Balance too low\");\r\n        _;\r\n    }\r\n\r\n    modifier hasSavings(uint256 _amount) {\r\n        require(accounts[msg.sender].savings >= _amount, \"Savings too low\");\r\n        _;\r\n    }\r\n\r\n    modifier isLockPeriodPast() {\r\n        require(\r\n            block.timestamp > accounts[msg.sender].savingsDate + compoundPeriod,\r\n            \"Savings lock period not over yet\"\r\n        );\r\n        _;\r\n    }\r\n\r\n    // ------------------------------------------------------------------\r\n    // Helper functions\r\n\r\n    /**\r\n     * @dev Returns the token implementation\r\n     * @return _token ERC-20 token\r\n     */\r\n    function getToken() internal view returns (IERC20 _token) {\r\n        return IERC20(tokenAddress);\r\n    }\r\n\r\n    // ------------------------------------------------------------------\r\n    // Owner functions\r\n\r\n    /**\r\n     * @dev Set owner\r\n     * @param _owner new owner address\r\n     */\r\n    function setOwner(address _owner) public isOwner {\r\n        emit OwnerChanged(owner, _owner);\r\n        owner = _owner;\r\n    }\r\n\r\n    /**\r\n     * @dev Set compound percentage\r\n     * @param _compoundPercentage savings compounding percentage\r\n     */\r\n    function setCompoundPercentage(uint256 _compoundPercentage) public isOwner {\r\n        emit CompoundPercentageChanged(compoundPercentage, _compoundPercentage);\r\n        compoundPercentage = _compoundPercentage;\r\n    }\r\n\r\n    /**\r\n     * @dev Set compound period\r\n     * @param _compoundPeriod seconds since last savings before compounding\r\n     */\r\n    function setCompoundPeriod(uint256 _compoundPeriod) public isOwner {\r\n        emit CompoundPeriodChanged(compoundPeriod, _compoundPeriod);\r\n        compoundPeriod = _compoundPeriod;\r\n    }\r\n\r\n    // ------------------------------------------------------------------\r\n    // User functions\r\n\r\n    /**\r\n     * @dev Deposit to caller's balance\r\n     * @param _amount amount of tokens to deposit\r\n     */\r\n    function deposit(uint256 _amount) public {\r\n        IERC20 token = getToken();\r\n        token.transferFrom(msg.sender, address(this), _amount);\r\n\r\n        accounts[msg.sender].balance += _amount;\r\n\r\n        emit Deposit(msg.sender, _amount);\r\n    }\r\n\r\n    /**\r\n     * @dev Withdraw from caller's balance\r\n     * @param _amount amount of tokens to withdraw\r\n     */\r\n    function withdraw(uint256 _amount) public hasBalance(_amount) {\r\n        IERC20 token = getToken();\r\n        token.transfer(msg.sender, _amount);\r\n\r\n        accounts[msg.sender].balance -= _amount;\r\n\r\n        emit Withdraw(msg.sender, _amount);\r\n    }\r\n\r\n    /**\r\n     * @dev Move tokens from balance to savings\r\n     * @param _amount amount of tokens to transfer\r\n     */\r\n    function save(uint256 _amount) public hasBalance(_amount) {\r\n        accounts[msg.sender].balance -= _amount;\r\n        accounts[msg.sender].savings += _amount;\r\n        accounts[msg.sender].savingsDate = block.timestamp;\r\n\r\n        emit Save(msg.sender, _amount);\r\n    }\r\n\r\n    /**\r\n     * @dev Move tokens from savings to balance\r\n     * @dev Only allowed when savings lock period is past\r\n     * @param _amount amount of tokens to transfer\r\n     */\r\n    function unsave(uint256 _amount)\r\n        public\r\n        hasSavings(_amount)\r\n        isLockPeriodPast\r\n    {\r\n        accounts[msg.sender].balance += _amount;\r\n        accounts[msg.sender].savings -= _amount;\r\n\r\n        emit Unsave(msg.sender, _amount);\r\n    }\r\n\r\n    /**\r\n     * @dev Compound savings\r\n     * @dev Only allowed when savings lock period is past\r\n     * @dev Compound value capped to maxCompoundReturn\r\n     */\r\n    function compound() public isLockPeriodPast {\r\n        uint256 compoundValue = (accounts[msg.sender].savings / 100) *\r\n            compoundPercentage;\r\n        uint256 valueWithCap = compoundValue > maxCompoundReturn\r\n            ? maxCompoundReturn\r\n            : compoundValue;\r\n        accounts[msg.sender].savings += valueWithCap;\r\n        accounts[msg.sender].savingsDate = block.timestamp;\r\n\r\n        emit Compound(msg.sender, valueWithCap);\r\n    }\r\n\r\n    // ------------------------------------------------------------------\r\n    // View functions\r\n\r\n    /**\r\n     * @dev Return account\r\n     * @return _account account\r\n     */\r\n    function getAccount() external view returns (Account memory _account) {\r\n        return accounts[msg.sender];\r\n    }\r\n\r\n    /**\r\n     * @dev Return account balance\r\n     * @return _balance account balance\r\n     */\r\n    function getBalance() external view returns (uint256 _balance) {\r\n        return accounts[msg.sender].balance;\r\n    }\r\n\r\n    /**\r\n     * @dev Return account savings\r\n     * @return _savings account savings\r\n     */\r\n    function getSavings() external view returns (uint256 _savings) {\r\n        return accounts[msg.sender].savings;\r\n    }\r\n\r\n    /**\r\n     * @dev Return savings timestamp\r\n     * @return _date savings timestamp\r\n     */\r\n    function getSavingsDate() external view returns (uint256 _date) {\r\n        return accounts[msg.sender].savingsDate;\r\n    }\r\n}\r\n",
  "sourcePath": "C:\\Users\\fabio\\Projects\\kid-money\\contracts\\Bank.sol",
  "compiler": {
    "name": "solc",
    "version": "0.8.11+commit.d7f03943.Emscripten.clang"
  },
  "schemaVersion": "3.4.2",
  "updatedAt": "2022-02-06T14:12:39.245Z",
  "networkType": "ethereum",
  "devdoc": {
    "details": "Store tokens and compound savings",
    "kind": "dev",
    "methods": {
      "compound()": {
        "details": "Compound savingsOnly allowed when savings lock period is pastCompound value capped to maxCompoundReturn"
      },
      "constructor": {
        "details": "Set contract deployer as owner",
        "params": {
          "_compoundPercentage": "savings compounding percentage",
          "_compoundPeriod": "seconds since last savings before compounding",
          "_maxCompoundReturn": "maximum amount of compounding on savings",
          "_tokenAddress": "ERC20 token address"
        }
      },
      "deposit(uint256)": {
        "details": "Deposit to caller's balance",
        "params": {
          "_amount": "amount of tokens to deposit"
        }
      },
      "getAccount()": {
        "details": "Return account",
        "returns": {
          "_account": "account"
        }
      },
      "getBalance()": {
        "details": "Return account balance",
        "returns": {
          "_balance": "account balance"
        }
      },
      "getSavings()": {
        "details": "Return account savings",
        "returns": {
          "_savings": "account savings"
        }
      },
      "getSavingsDate()": {
        "details": "Return savings timestamp",
        "returns": {
          "_date": "savings timestamp"
        }
      },
      "save(uint256)": {
        "details": "Move tokens from balance to savings",
        "params": {
          "_amount": "amount of tokens to transfer"
        }
      },
      "setCompoundPercentage(uint256)": {
        "details": "Set compound percentage",
        "params": {
          "_compoundPercentage": "savings compounding percentage"
        }
      },
      "setCompoundPeriod(uint256)": {
        "details": "Set compound period",
        "params": {
          "_compoundPeriod": "seconds since last savings before compounding"
        }
      },
      "setOwner(address)": {
        "details": "Set owner",
        "params": {
          "_owner": "new owner address"
        }
      },
      "unsave(uint256)": {
        "details": "Move tokens from savings to balanceOnly allowed when savings lock period is past",
        "params": {
          "_amount": "amount of tokens to transfer"
        }
      },
      "withdraw(uint256)": {
        "details": "Withdraw from caller's balance",
        "params": {
          "_amount": "amount of tokens to withdraw"
        }
      }
    },
    "title": "Bank",
    "version": 1
  },
  "userdoc": {
    "kind": "user",
    "methods": {},
    "version": 1
  }
}