{
  "contractName": "Bank",
  "abi": [
    {
      "inputs": [
        {
          "internalType": "address",
          "name": "_tokenAddress",
          "type": "address"
        },
        {
          "internalType": "uint256",
          "name": "_compoundPercentage",
          "type": "uint256"
        },
        {
          "internalType": "uint256",
          "name": "_compoundPeriod",
          "type": "uint256"
        },
        {
          "internalType": "uint256",
          "name": "_maxCompoundReturn",
          "type": "uint256"
        }
      ],
      "stateMutability": "nonpayable",
      "type": "constructor"
    },
    {
      "anonymous": false,
      "inputs": [
        {
          "indexed": true,
          "internalType": "address",
          "name": "account",
          "type": "address"
        },
        {
          "indexed": true,
          "internalType": "string",
          "name": "compoundType",
          "type": "string"
        },
        {
          "indexed": false,
          "internalType": "uint256",
          "name": "amount",
          "type": "uint256"
        }
      ],
      "name": "Compound",
      "type": "event"
    },
    {
      "anonymous": false,
      "inputs": [
        {
          "indexed": false,
          "internalType": "uint256",
          "name": "previousPercentage",
          "type": "uint256"
        },
        {
          "indexed": false,
          "internalType": "uint256",
          "name": "newPercentage",
          "type": "uint256"
        }
      ],
      "name": "CompoundPercentageChanged",
      "type": "event"
    },
    {
      "anonymous": false,
      "inputs": [
        {
          "indexed": false,
          "internalType": "uint256",
          "name": "previousPeriod",
          "type": "uint256"
        },
        {
          "indexed": false,
          "internalType": "uint256",
          "name": "newPeriod",
          "type": "uint256"
        }
      ],
      "name": "CompoundPeriodChanged",
      "type": "event"
    },
    {
      "anonymous": false,
      "inputs": [
        {
          "indexed": true,
          "internalType": "address",
          "name": "account",
          "type": "address"
        },
        {
          "indexed": false,
          "internalType": "uint256",
          "name": "amount",
          "type": "uint256"
        }
      ],
      "name": "Deposit",
      "type": "event"
    },
    {
      "anonymous": false,
      "inputs": [
        {
          "indexed": true,
          "internalType": "address",
          "name": "previousOwner",
          "type": "address"
        },
        {
          "indexed": true,
          "internalType": "address",
          "name": "newOwner",
          "type": "address"
        }
      ],
      "name": "OwnerChanged",
      "type": "event"
    },
    {
      "anonymous": false,
      "inputs": [
        {
          "indexed": true,
          "internalType": "address",
          "name": "account",
          "type": "address"
        },
        {
          "indexed": false,
          "internalType": "uint256",
          "name": "amount",
          "type": "uint256"
        }
      ],
      "name": "Save",
      "type": "event"
    },
    {
      "anonymous": false,
      "inputs": [
        {
          "indexed": true,
          "internalType": "address",
          "name": "previousToken",
          "type": "address"
        },
        {
          "indexed": true,
          "internalType": "address",
          "name": "newToken",
          "type": "address"
        }
      ],
      "name": "TokenChanged",
      "type": "event"
    },
    {
      "anonymous": false,
      "inputs": [
        {
          "indexed": true,
          "internalType": "address",
          "name": "account",
          "type": "address"
        },
        {
          "indexed": false,
          "internalType": "uint256",
          "name": "amount",
          "type": "uint256"
        }
      ],
      "name": "Unsave",
      "type": "event"
    },
    {
      "anonymous": false,
      "inputs": [
        {
          "indexed": true,
          "internalType": "address",
          "name": "account",
          "type": "address"
        },
        {
          "indexed": false,
          "internalType": "uint256",
          "name": "amount",
          "type": "uint256"
        }
      ],
      "name": "Withdraw",
      "type": "event"
    },
    {
      "inputs": [],
      "name": "compoundPercentage",
      "outputs": [
        {
          "internalType": "uint256",
          "name": "",
          "type": "uint256"
        }
      ],
      "stateMutability": "view",
      "type": "function"
    },
    {
      "inputs": [],
      "name": "compoundPeriod",
      "outputs": [
        {
          "internalType": "uint256",
          "name": "",
          "type": "uint256"
        }
      ],
      "stateMutability": "view",
      "type": "function"
    },
    {
      "inputs": [],
      "name": "maxCompoundReturn",
      "outputs": [
        {
          "internalType": "uint256",
          "name": "",
          "type": "uint256"
        }
      ],
      "stateMutability": "view",
      "type": "function"
    },
    {
      "inputs": [],
      "name": "owner",
      "outputs": [
        {
          "internalType": "address",
          "name": "",
          "type": "address"
        }
      ],
      "stateMutability": "view",
      "type": "function"
    },
    {
      "inputs": [],
      "name": "tokenAddress",
      "outputs": [
        {
          "internalType": "address",
          "name": "",
          "type": "address"
        }
      ],
      "stateMutability": "view",
      "type": "function"
    },
    {
      "inputs": [
        {
          "internalType": "address",
          "name": "_owner",
          "type": "address"
        }
      ],
      "name": "setOwner",
      "outputs": [],
      "stateMutability": "nonpayable",
      "type": "function"
    },
    {
      "inputs": [
        {
          "internalType": "uint256",
          "name": "_compoundPercentage",
          "type": "uint256"
        }
      ],
      "name": "setCompoundPercentage",
      "outputs": [],
      "stateMutability": "nonpayable",
      "type": "function"
    },
    {
      "inputs": [
        {
          "internalType": "uint256",
          "name": "_compoundPeriod",
          "type": "uint256"
        }
      ],
      "name": "setCompoundPeriod",
      "outputs": [],
      "stateMutability": "nonpayable",
      "type": "function"
    },
    {
      "inputs": [
        {
          "internalType": "uint256",
          "name": "_amount",
          "type": "uint256"
        }
      ],
      "name": "deposit",
      "outputs": [],
      "stateMutability": "nonpayable",
      "type": "function"
    },
    {
      "inputs": [
        {
          "internalType": "uint256",
          "name": "_amount",
          "type": "uint256"
        }
      ],
      "name": "withdraw",
      "outputs": [],
      "stateMutability": "nonpayable",
      "type": "function"
    },
    {
      "inputs": [
        {
          "internalType": "uint256",
          "name": "_amount",
          "type": "uint256"
        }
      ],
      "name": "save",
      "outputs": [],
      "stateMutability": "nonpayable",
      "type": "function"
    },
    {
      "inputs": [
        {
          "internalType": "uint256",
          "name": "_amount",
          "type": "uint256"
        }
      ],
      "name": "unsave",
      "outputs": [],
      "stateMutability": "nonpayable",
      "type": "function"
    },
    {
      "inputs": [],
      "name": "compoundAndSave",
      "outputs": [],
      "stateMutability": "nonpayable",
      "type": "function"
    },
    {
      "inputs": [],
      "name": "compoundAndWithdrawReturns",
      "outputs": [],
      "stateMutability": "nonpayable",
      "type": "function"
    },
    {
      "inputs": [],
      "name": "compoundAndWithdrawAll",
      "outputs": [],
      "stateMutability": "nonpayable",
      "type": "function"
    },
    {
      "inputs": [],
      "name": "getAccount",
      "outputs": [
        {
          "components": [
            {
              "internalType": "uint256",
              "name": "balance",
              "type": "uint256"
            },
            {
              "internalType": "uint256",
              "name": "savings",
              "type": "uint256"
            },
            {
              "internalType": "uint256",
              "name": "savingsDate",
              "type": "uint256"
            }
          ],
          "internalType": "struct Bank.Account",
          "name": "_account",
          "type": "tuple"
        }
      ],
      "stateMutability": "view",
      "type": "function"
    },
    {
      "inputs": [],
      "name": "getBalance",
      "outputs": [
        {
          "internalType": "uint256",
          "name": "_balance",
          "type": "uint256"
        }
      ],
      "stateMutability": "view",
      "type": "function"
    },
    {
      "inputs": [],
      "name": "getSavings",
      "outputs": [
        {
          "internalType": "uint256",
          "name": "_savings",
          "type": "uint256"
        }
      ],
      "stateMutability": "view",
      "type": "function"
    },
    {
      "inputs": [],
      "name": "getSavingsDate",
      "outputs": [
        {
          "internalType": "uint256",
          "name": "_date",
          "type": "uint256"
        }
      ],
      "stateMutability": "view",
      "type": "function"
    }
  ],
  "bytecode": "0x60806040523480156200001157600080fd5b5060405162001e9d38038062001e9d83398181016040528101906200003791906200017c565b336000806101000a81548173ffffffffffffffffffffffffffffffffffffffff021916908373ffffffffffffffffffffffffffffffffffffffff16021790555083600160006101000a81548173ffffffffffffffffffffffffffffffffffffffff021916908373ffffffffffffffffffffffffffffffffffffffff16021790555082600281905550816003819055508060048190555050505050620001ee565b600080fd5b600073ffffffffffffffffffffffffffffffffffffffff82169050919050565b60006200010982620000dc565b9050919050565b6200011b81620000fc565b81146200012757600080fd5b50565b6000815190506200013b8162000110565b92915050565b6000819050919050565b620001568162000141565b81146200016257600080fd5b50565b60008151905062000176816200014b565b92915050565b60008060008060808587031215620001995762000198620000d7565b5b6000620001a9878288016200012a565b9450506020620001bc8782880162000165565b9350506040620001cf8782880162000165565b9250506060620001e28782880162000165565b91505092959194509250565b611c9f80620001fe6000396000f3fe608060405234801561001057600080fd5b50600436106101215760003560e01c8063647f3d18116100ad578063a52952e311610071578063a52952e314610284578063a795c31b146102a2578063b6b55f25146102c0578063d11c4455146102dc578063db613e81146102f857610121565b8063647f3d181461020457806367a685aa146102225780636bc832e41461022c5780638da5cb5b146102485780639d76ea581461026657610121565b80632ac8a0cc116100f45780632ac8a0cc146101985780632e1a7d4d146101a257806335a0f51e146101be5780633d47b41c146101dc5780635a2f75ab146101fa57610121565b806308871d8e1461012657806312065fe01461014257806313af4035146101605780631b8620271461017c575b600080fd5b610140600480360381019061013b91906115a1565b610316565b005b61014a6103e9565b60405161015791906115dd565b60405180910390f35b61017a60048036038101906101759190611656565b610433565b005b610196600480360381019061019191906115a1565b61057e565b005b6101a061074f565b005b6101bc60048036038101906101b791906115a1565b610934565b005b6101c6610af1565b6040516101d391906115dd565b60405180910390f35b6101e4610af7565b6040516101f191906115dd565b60405180910390f35b610202610afd565b005b61020c610d77565b60405161021991906115dd565b60405180910390f35b61022a610dc1565b005b610246600480360381019061024191906115a1565b610fa6565b005b610250611079565b60405161025d9190611692565b60405180910390f35b61026e61109d565b60405161027b9190611692565b60405180910390f35b61028c6110c3565b60405161029991906115dd565b60405180910390f35b6102aa6110c9565b6040516102b791906115dd565b60405180910390f35b6102da60048036038101906102d591906115a1565b611113565b005b6102f660048036038101906102f191906115a1565b61124b565b005b610300611466565b60405161030d91906116fe565b60405180910390f35b60008054906101000a900473ffffffffffffffffffffffffffffffffffffffff1673ffffffffffffffffffffffffffffffffffffffff163373ffffffffffffffffffffffffffffffffffffffff16146103a4576040517f08c379a000000000000000000000000000000000000000000000000000000000815260040161039b90611776565b60405180910390fd5b7fcc3653e555c8788a19b9703b10039b2ed633fa6deb7755c321360f94697c6d24600354826040516103d7929190611796565b60405180910390a18060038190555050565b6000600560003373ffffffffffffffffffffffffffffffffffffffff1673ffffffffffffffffffffffffffffffffffffffff16815260200190815260200160002060000154905090565b60008054906101000a900473ffffffffffffffffffffffffffffffffffffffff1673ffffffffffffffffffffffffffffffffffffffff163373ffffffffffffffffffffffffffffffffffffffff16146104c1576040517f08c379a00000000000000000000000000000000000000000000000000000000081526004016104b890611776565b60405180910390fd5b8073ffffffffffffffffffffffffffffffffffffffff1660008054906101000a900473ffffffffffffffffffffffffffffffffffffffff1673ffffffffffffffffffffffffffffffffffffffff167fb532073b38c83145e3e5135377a08bf9aab55bc0fd7c1179cd4fb995d2a5159c60405160405180910390a3806000806101000a81548173ffffffffffffffffffffffffffffffffffffffff021916908373ffffffffffffffffffffffffffffffffffffffff16021790555050565b8080600560003373ffffffffffffffffffffffffffffffffffffffff1673ffffffffffffffffffffffffffffffffffffffff168152602001908152602001600020600001541015610604576040517f08c379a00000000000000000000000000000000000000000000000000000000081526004016105fb9061180b565b60405180910390fd5b81600560003373ffffffffffffffffffffffffffffffffffffffff1673ffffffffffffffffffffffffffffffffffffffff1681526020019081526020016000206000016000828254610656919061185a565b9250508190555081600560003373ffffffffffffffffffffffffffffffffffffffff1673ffffffffffffffffffffffffffffffffffffffff16815260200190815260200160002060010160008282546106af919061188e565b9250508190555042600560003373ffffffffffffffffffffffffffffffffffffffff1673ffffffffffffffffffffffffffffffffffffffff168152602001908152602001600020600201819055503373ffffffffffffffffffffffffffffffffffffffff167f5a3e025ad8b0ffc3940134b57218ebd90cfa0ed8a0ec0fdd53be572c480cf2cd8360405161074391906115dd565b60405180910390a25050565b600354600560003373ffffffffffffffffffffffffffffffffffffffff1673ffffffffffffffffffffffffffffffffffffffff1681526020019081526020016000206002015461079f919061188e565b42116107e0576040517f08c379a00000000000000000000000000000000000000000000000000000000081526004016107d790611930565b60405180910390fd5b600061082d600560003373ffffffffffffffffffffffffffffffffffffffff1673ffffffffffffffffffffffffffffffffffffffff168152602001908152602001600020600101546114db565b905080600560003373ffffffffffffffffffffffffffffffffffffffff1673ffffffffffffffffffffffffffffffffffffffff1681526020019081526020016000206001016000828254610881919061188e565b9250508190555042600560003373ffffffffffffffffffffffffffffffffffffffff1673ffffffffffffffffffffffffffffffffffffffff168152602001908152602001600020600201819055506040516108db906119a7565b60405180910390203373ffffffffffffffffffffffffffffffffffffffff167fc56ae851ecaeebe4d0dc6961c8b95379762507d15ce8309b2fc639360c86368e8360405161092991906115dd565b60405180910390a350565b8080600560003373ffffffffffffffffffffffffffffffffffffffff1673ffffffffffffffffffffffffffffffffffffffff1681526020019081526020016000206000015410156109ba576040517f08c379a00000000000000000000000000000000000000000000000000000000081526004016109b19061180b565b60405180910390fd5b60006109c461151b565b90508073ffffffffffffffffffffffffffffffffffffffff1663a9059cbb33856040518363ffffffff1660e01b8152600401610a019291906119bc565b6020604051808303816000875af1158015610a20573d6000803e3d6000fd5b505050506040513d601f19601f82011682018060405250810190610a449190611a1d565b5082600560003373ffffffffffffffffffffffffffffffffffffffff1673ffffffffffffffffffffffffffffffffffffffff1681526020019081526020016000206000016000828254610a97919061185a565b925050819055503373ffffffffffffffffffffffffffffffffffffffff167f884edad9ce6fa2440d8a54cc123490eb96d2768479d49ff9c7366125a942436484604051610ae491906115dd565b60405180910390a2505050565b60045481565b60025481565b600354600560003373ffffffffffffffffffffffffffffffffffffffff1673ffffffffffffffffffffffffffffffffffffffff16815260200190815260200160002060020154610b4d919061188e565b4211610b8e576040517f08c379a0000000000000000000000000000000000000000000000000000000008152600401610b8590611930565b60405180910390fd5b6000610bdb600560003373ffffffffffffffffffffffffffffffffffffffff1673ffffffffffffffffffffffffffffffffffffffff168152602001908152602001600020600101546114db565b905080600560003373ffffffffffffffffffffffffffffffffffffffff1673ffffffffffffffffffffffffffffffffffffffff16815260200190815260200160002060010154610c2b919061188e565b600560003373ffffffffffffffffffffffffffffffffffffffff1673ffffffffffffffffffffffffffffffffffffffff1681526020019081526020016000206000016000828254610c7c919061188e565b925050819055506000600560003373ffffffffffffffffffffffffffffffffffffffff1673ffffffffffffffffffffffffffffffffffffffff1681526020019081526020016000206001018190555042600560003373ffffffffffffffffffffffffffffffffffffffff1673ffffffffffffffffffffffffffffffffffffffff16815260200190815260200160002060020181905550604051610d1e90611a96565b60405180910390203373ffffffffffffffffffffffffffffffffffffffff167fc56ae851ecaeebe4d0dc6961c8b95379762507d15ce8309b2fc639360c86368e83604051610d6c91906115dd565b60405180910390a350565b6000600560003373ffffffffffffffffffffffffffffffffffffffff1673ffffffffffffffffffffffffffffffffffffffff16815260200190815260200160002060020154905090565b600354600560003373ffffffffffffffffffffffffffffffffffffffff1673ffffffffffffffffffffffffffffffffffffffff16815260200190815260200160002060020154610e11919061188e565b4211610e52576040517f08c379a0000000000000000000000000000000000000000000000000000000008152600401610e4990611930565b60405180910390fd5b6000610e9f600560003373ffffffffffffffffffffffffffffffffffffffff1673ffffffffffffffffffffffffffffffffffffffff168152602001908152602001600020600101546114db565b905080600560003373ffffffffffffffffffffffffffffffffffffffff1673ffffffffffffffffffffffffffffffffffffffff1681526020019081526020016000206000016000828254610ef3919061188e565b9250508190555042600560003373ffffffffffffffffffffffffffffffffffffffff1673ffffffffffffffffffffffffffffffffffffffff16815260200190815260200160002060020181905550604051610f4d90611af7565b60405180910390203373ffffffffffffffffffffffffffffffffffffffff167fc56ae851ecaeebe4d0dc6961c8b95379762507d15ce8309b2fc639360c86368e83604051610f9b91906115dd565b60405180910390a350565b60008054906101000a900473ffffffffffffffffffffffffffffffffffffffff1673ffffffffffffffffffffffffffffffffffffffff163373ffffffffffffffffffffffffffffffffffffffff1614611034576040517f08c379a000000000000000000000000000000000000000000000000000000000815260040161102b90611776565b60405180910390fd5b7f8dc56a1b496e14d2f5e1b2189411617746b140c97d50ac671f0e19711b6ed0cf60025482604051611067929190611796565b60405180910390a18060028190555050565b60008054906101000a900473ffffffffffffffffffffffffffffffffffffffff1681565b600160009054906101000a900473ffffffffffffffffffffffffffffffffffffffff1681565b60035481565b6000600560003373ffffffffffffffffffffffffffffffffffffffff1673ffffffffffffffffffffffffffffffffffffffff16815260200190815260200160002060010154905090565b600061111d61151b565b90508073ffffffffffffffffffffffffffffffffffffffff166323b872dd3330856040518463ffffffff1660e01b815260040161115c93929190611b0c565b6020604051808303816000875af115801561117b573d6000803e3d6000fd5b505050506040513d601f19601f8201168201806040525081019061119f9190611a1d565b5081600560003373ffffffffffffffffffffffffffffffffffffffff1673ffffffffffffffffffffffffffffffffffffffff16815260200190815260200160002060000160008282546111f2919061188e565b925050819055503373ffffffffffffffffffffffffffffffffffffffff167fe1fffcc4923d04b559f4d29a8bfc6cda04eb5b0d3c460751c2402c5c5cc9109c8360405161123f91906115dd565b60405180910390a25050565b8080600560003373ffffffffffffffffffffffffffffffffffffffff1673ffffffffffffffffffffffffffffffffffffffff1681526020019081526020016000206001015410156112d1576040517f08c379a00000000000000000000000000000000000000000000000000000000081526004016112c890611b8f565b60405180910390fd5b600354600560003373ffffffffffffffffffffffffffffffffffffffff1673ffffffffffffffffffffffffffffffffffffffff16815260200190815260200160002060020154611321919061188e565b4211611362576040517f08c379a000000000000000000000000000000000000000000000000000000000815260040161135990611930565b60405180910390fd5b81600560003373ffffffffffffffffffffffffffffffffffffffff1673ffffffffffffffffffffffffffffffffffffffff16815260200190815260200160002060000160008282546113b4919061188e565b9250508190555081600560003373ffffffffffffffffffffffffffffffffffffffff1673ffffffffffffffffffffffffffffffffffffffff168152602001908152602001600020600101600082825461140d919061185a565b925050819055503373ffffffffffffffffffffffffffffffffffffffff167fba2505d42b89ca6f144a2e97a04e28fceb1cb96dabe61a8fb4dcc327772561fc8360405161145a91906115dd565b60405180910390a25050565b61146e611545565b600560003373ffffffffffffffffffffffffffffffffffffffff1673ffffffffffffffffffffffffffffffffffffffff1681526020019081526020016000206040518060600160405290816000820154815260200160018201548152602001600282015481525050905090565b6000806002546064846114ee9190611bde565b6114f89190611c0f565b90506000600454821161150b578161150f565b6004545b90508092505050919050565b6000600160009054906101000a900473ffffffffffffffffffffffffffffffffffffffff16905090565b60405180606001604052806000815260200160008152602001600081525090565b600080fd5b6000819050919050565b61157e8161156b565b811461158957600080fd5b50565b60008135905061159b81611575565b92915050565b6000602082840312156115b7576115b6611566565b5b60006115c58482850161158c565b91505092915050565b6115d78161156b565b82525050565b60006020820190506115f260008301846115ce565b92915050565b600073ffffffffffffffffffffffffffffffffffffffff82169050919050565b6000611623826115f8565b9050919050565b61163381611618565b811461163e57600080fd5b50565b6000813590506116508161162a565b92915050565b60006020828403121561166c5761166b611566565b5b600061167a84828501611641565b91505092915050565b61168c81611618565b82525050565b60006020820190506116a76000830184611683565b92915050565b6116b68161156b565b82525050565b6060820160008201516116d260008501826116ad565b5060208201516116e560208501826116ad565b5060408201516116f860408501826116ad565b50505050565b600060608201905061171360008301846116bc565b92915050565b600082825260208201905092915050565b7f43616c6c6572206973206e6f74206f776e657200000000000000000000000000600082015250565b6000611760601383611719565b915061176b8261172a565b602082019050919050565b6000602082019050818103600083015261178f81611753565b9050919050565b60006040820190506117ab60008301856115ce565b6117b860208301846115ce565b9392505050565b7f42616c616e636520746f6f206c6f770000000000000000000000000000000000600082015250565b60006117f5600f83611719565b9150611800826117bf565b602082019050919050565b60006020820190508181036000830152611824816117e8565b9050919050565b7f4e487b7100000000000000000000000000000000000000000000000000000000600052601160045260246000fd5b60006118658261156b565b91506118708361156b565b9250828210156118835761188261182b565b5b828203905092915050565b60006118998261156b565b91506118a48361156b565b9250827fffffffffffffffffffffffffffffffffffffffffffffffffffffffffffffffff038211156118d9576118d861182b565b5b828201905092915050565b7f536176696e6773206c6f636b20706572696f64206e6f74206f76657220796574600082015250565b600061191a602083611719565b9150611925826118e4565b602082019050919050565b600060208201905081810360008301526119498161190d565b9050919050565b600081905092915050565b7f5361766500000000000000000000000000000000000000000000000000000000600082015250565b6000611991600483611950565b915061199c8261195b565b600482019050919050565b60006119b282611984565b9150819050919050565b60006040820190506119d16000830185611683565b6119de60208301846115ce565b9392505050565b60008115159050919050565b6119fa816119e5565b8114611a0557600080fd5b50565b600081519050611a17816119f1565b92915050565b600060208284031215611a3357611a32611566565b5b6000611a4184828501611a08565b91505092915050565b7f5769746864726177416c6c000000000000000000000000000000000000000000600082015250565b6000611a80600b83611950565b9150611a8b82611a4a565b600b82019050919050565b6000611aa182611a73565b9150819050919050565b7f576974686472617752657475726e730000000000000000000000000000000000600082015250565b6000611ae1600f83611950565b9150611aec82611aab565b600f82019050919050565b6000611b0282611ad4565b9150819050919050565b6000606082019050611b216000830186611683565b611b2e6020830185611683565b611b3b60408301846115ce565b949350505050565b7f536176696e677320746f6f206c6f770000000000000000000000000000000000600082015250565b6000611b79600f83611719565b9150611b8482611b43565b602082019050919050565b60006020820190508181036000830152611ba881611b6c565b9050919050565b7f4e487b7100000000000000000000000000000000000000000000000000000000600052601260045260246000fd5b6000611be98261156b565b9150611bf48361156b565b925082611c0457611c03611baf565b5b828204905092915050565b6000611c1a8261156b565b9150611c258361156b565b9250817fffffffffffffffffffffffffffffffffffffffffffffffffffffffffffffffff0483118215151615611c5e57611c5d61182b565b5b82820290509291505056fea2646970667358221220f5702885e1cfcbfbe8b36ee2be189a784d6dfba58cfcea6e0dd538e9cbfc69f264736f6c634300080e0033",
  "immutableReferences": {},
  "source": "// SPDX-License-Identifier: GPL-3.0\r\n\r\npragma solidity >=0.7.0 <0.9.0;\r\n\r\nimport \"@openzeppelin/contracts/token/ERC20/IERC20.sol\";\r\n\r\n/**\r\n * @title Bank\r\n * @dev Store tokens and compound savings\r\n */\r\ncontract Bank {\r\n    // ------------------------------------------------------------------\r\n    // config\r\n\r\n    address public owner;\r\n    address public tokenAddress;\r\n    uint256 public compoundPercentage;\r\n    uint256 public compoundPeriod;\r\n    uint256 public maxCompoundReturn;\r\n\r\n    /**\r\n     * @dev Set contract deployer as owner\r\n     * @param _tokenAddress ERC20 token address\r\n     * @param _compoundPercentage savings compounding percentage\r\n     * @param _compoundPeriod seconds since last savings before compounding\r\n     * @param _maxCompoundReturn maximum amount of compounding on savings\r\n     */\r\n    constructor(\r\n        address _tokenAddress,\r\n        uint256 _compoundPercentage,\r\n        uint256 _compoundPeriod,\r\n        uint256 _maxCompoundReturn\r\n    ) {\r\n        owner = msg.sender;\r\n        tokenAddress = _tokenAddress;\r\n        compoundPercentage = _compoundPercentage;\r\n        compoundPeriod = _compoundPeriod;\r\n        maxCompoundReturn = _maxCompoundReturn;\r\n    }\r\n\r\n    // ------------------------------------------------------------------\r\n    // structs\r\n\r\n    struct Account {\r\n        uint256 balance;\r\n        uint256 savings;\r\n        uint256 savingsDate;\r\n    }\r\n\r\n    // ------------------------------------------------------------------\r\n    // state\r\n\r\n    mapping(address => Account) private accounts;\r\n\r\n    // ------------------------------------------------------------------\r\n    // owner events\r\n\r\n    event OwnerChanged(address indexed previousOwner, address indexed newOwner);\r\n    event TokenChanged(address indexed previousToken, address indexed newToken);\r\n    event CompoundPercentageChanged(\r\n        uint256 previousPercentage,\r\n        uint256 newPercentage\r\n    );\r\n    event CompoundPeriodChanged(uint256 previousPeriod, uint256 newPeriod);\r\n\r\n    // ------------------------------------------------------------------\r\n    // user events\r\n\r\n    event Deposit(address indexed account, uint256 amount);\r\n    event Withdraw(address indexed account, uint256 amount);\r\n    event Save(address indexed account, uint256 amount);\r\n    event Unsave(address indexed account, uint256 amount);\r\n    event Compound(\r\n        address indexed account,\r\n        string indexed compoundType,\r\n        uint256 amount\r\n    );\r\n\r\n    // ------------------------------------------------------------------\r\n    // modifiers\r\n\r\n    modifier isOwner() {\r\n        require(msg.sender == owner, \"Caller is not owner\");\r\n        _;\r\n    }\r\n\r\n    modifier hasBalance(uint256 _amount) {\r\n        require(accounts[msg.sender].balance >= _amount, \"Balance too low\");\r\n        _;\r\n    }\r\n\r\n    modifier hasSavings(uint256 _amount) {\r\n        require(accounts[msg.sender].savings >= _amount, \"Savings too low\");\r\n        _;\r\n    }\r\n\r\n    modifier isLockPeriodPast() {\r\n        require(\r\n            block.timestamp > accounts[msg.sender].savingsDate + compoundPeriod,\r\n            \"Savings lock period not over yet\"\r\n        );\r\n        _;\r\n    }\r\n\r\n    // ------------------------------------------------------------------\r\n    // Helper functions\r\n\r\n    /**\r\n     * @dev Returns the token implementation\r\n     * @return _token ERC-20 token\r\n     */\r\n    function getToken() internal view returns (IERC20 _token) {\r\n        return IERC20(tokenAddress);\r\n    }\r\n\r\n    /**\r\n     * @dev Returns the token implementation\r\n     * @return _compoundReturn Capped return for compounding\r\n     */\r\n    function calculateCappedCompoundReturn(uint256 savings)\r\n        internal\r\n        view\r\n        returns (uint256 _compoundReturn)\r\n    {\r\n        uint256 compoundValue = (savings / 100) * compoundPercentage;\r\n        uint256 valueWithCap = compoundValue > maxCompoundReturn\r\n            ? maxCompoundReturn\r\n            : compoundValue;\r\n        return valueWithCap;\r\n    }\r\n\r\n    // ------------------------------------------------------------------\r\n    // Owner functions\r\n\r\n    /**\r\n     * @dev Set owner\r\n     * @param _owner new owner address\r\n     */\r\n    function setOwner(address _owner) public isOwner {\r\n        emit OwnerChanged(owner, _owner);\r\n        owner = _owner;\r\n    }\r\n\r\n    /**\r\n     * @dev Set compound percentage\r\n     * @param _compoundPercentage savings compounding percentage\r\n     */\r\n    function setCompoundPercentage(uint256 _compoundPercentage) public isOwner {\r\n        emit CompoundPercentageChanged(compoundPercentage, _compoundPercentage);\r\n        compoundPercentage = _compoundPercentage;\r\n    }\r\n\r\n    /**\r\n     * @dev Set compound period\r\n     * @param _compoundPeriod seconds since last savings before compounding\r\n     */\r\n    function setCompoundPeriod(uint256 _compoundPeriod) public isOwner {\r\n        emit CompoundPeriodChanged(compoundPeriod, _compoundPeriod);\r\n        compoundPeriod = _compoundPeriod;\r\n    }\r\n\r\n    // ------------------------------------------------------------------\r\n    // User functions\r\n\r\n    /**\r\n     * @dev Deposit to caller's balance\r\n     * @param _amount amount of tokens to deposit\r\n     */\r\n    function deposit(uint256 _amount) public {\r\n        IERC20 token = getToken();\r\n        token.transferFrom(msg.sender, address(this), _amount);\r\n\r\n        accounts[msg.sender].balance += _amount;\r\n\r\n        emit Deposit(msg.sender, _amount);\r\n    }\r\n\r\n    /**\r\n     * @dev Withdraw from caller's balance\r\n     * @param _amount amount of tokens to withdraw\r\n     */\r\n    function withdraw(uint256 _amount) public hasBalance(_amount) {\r\n        IERC20 token = getToken();\r\n        token.transfer(msg.sender, _amount);\r\n\r\n        accounts[msg.sender].balance -= _amount;\r\n\r\n        emit Withdraw(msg.sender, _amount);\r\n    }\r\n\r\n    /**\r\n     * @dev Move tokens from balance to savings\r\n     * @param _amount amount of tokens to transfer\r\n     */\r\n    function save(uint256 _amount) public hasBalance(_amount) {\r\n        accounts[msg.sender].balance -= _amount;\r\n        accounts[msg.sender].savings += _amount;\r\n        accounts[msg.sender].savingsDate = block.timestamp;\r\n\r\n        emit Save(msg.sender, _amount);\r\n    }\r\n\r\n    /**\r\n     * @dev Move tokens from savings to balance\r\n     * @dev Only allowed when savings lock period is past\r\n     * @param _amount amount of tokens to transfer\r\n     */\r\n    function unsave(uint256 _amount)\r\n        public\r\n        hasSavings(_amount)\r\n        isLockPeriodPast\r\n    {\r\n        accounts[msg.sender].balance += _amount;\r\n        accounts[msg.sender].savings -= _amount;\r\n\r\n        emit Unsave(msg.sender, _amount);\r\n    }\r\n\r\n    /**\r\n     * @dev Compound savings and save the returns\r\n     * @dev Only allowed when savings lock period is past\r\n     * @dev Compound value capped to maxCompoundReturn\r\n     */\r\n    function compoundAndSave() public isLockPeriodPast {\r\n        uint256 valueWithCap = calculateCappedCompoundReturn(\r\n            accounts[msg.sender].savings\r\n        );\r\n        accounts[msg.sender].savings += valueWithCap;\r\n        accounts[msg.sender].savingsDate = block.timestamp;\r\n\r\n        emit Compound(msg.sender, \"Save\", valueWithCap);\r\n    }\r\n\r\n    /**\r\n     * @dev Compound savings and withdraw the returns\r\n     * @dev Only allowed when savings lock period is past\r\n     * @dev Compound value capped to maxCompoundReturn\r\n     */\r\n    function compoundAndWithdrawReturns() public isLockPeriodPast {\r\n        uint256 valueWithCap = calculateCappedCompoundReturn(\r\n            accounts[msg.sender].savings\r\n        );\r\n        accounts[msg.sender].balance += valueWithCap;\r\n        accounts[msg.sender].savingsDate = block.timestamp;\r\n\r\n        emit Compound(msg.sender, \"WithdrawReturns\", valueWithCap);\r\n    }\r\n\r\n    /**\r\n     * @dev Compound savings and withdraw savings and returns\r\n     * @dev Only allowed when savings lock period is past\r\n     * @dev Compound value capped to maxCompoundReturn\r\n     */\r\n    function compoundAndWithdrawAll() public isLockPeriodPast {\r\n        uint256 valueWithCap = calculateCappedCompoundReturn(\r\n            accounts[msg.sender].savings\r\n        );\r\n        accounts[msg.sender].balance +=\r\n            accounts[msg.sender].savings +\r\n            valueWithCap;\r\n        accounts[msg.sender].savings = 0;\r\n        accounts[msg.sender].savingsDate = block.timestamp;\r\n\r\n        emit Compound(msg.sender, \"WithdrawAll\", valueWithCap);\r\n    }\r\n\r\n    // ------------------------------------------------------------------\r\n    // View functions\r\n\r\n    /**\r\n     * @dev Return account\r\n     * @return _account account\r\n     */\r\n    function getAccount() external view returns (Account memory _account) {\r\n        return accounts[msg.sender];\r\n    }\r\n\r\n    /**\r\n     * @dev Return account balance\r\n     * @return _balance account balance\r\n     */\r\n    function getBalance() external view returns (uint256 _balance) {\r\n        return accounts[msg.sender].balance;\r\n    }\r\n\r\n    /**\r\n     * @dev Return account savings\r\n     * @return _savings account savings\r\n     */\r\n    function getSavings() external view returns (uint256 _savings) {\r\n        return accounts[msg.sender].savings;\r\n    }\r\n\r\n    /**\r\n     * @dev Return savings timestamp\r\n     * @return _date savings timestamp\r\n     */\r\n    function getSavingsDate() external view returns (uint256 _date) {\r\n        return accounts[msg.sender].savingsDate;\r\n    }\r\n}\r\n",
  "sourcePath": "C:\\Users\\fabio\\Projects\\kid-money\\contracts\\Bank.sol",
  "compiler": {
    "name": "solc",
    "version": "0.8.14+commit.80d49f37.Emscripten.clang"
  },
  "schemaVersion": "3.4.4",
  "updatedAt": "2022-05-29T22:01:23.169Z",
  "devdoc": {
    "details": "Store tokens and compound savings",
    "kind": "dev",
    "methods": {
      "compoundAndSave()": {
        "details": "Compound savings and save the returnsOnly allowed when savings lock period is pastCompound value capped to maxCompoundReturn"
      },
      "compoundAndWithdrawAll()": {
        "details": "Compound savings and withdraw savings and returnsOnly allowed when savings lock period is pastCompound value capped to maxCompoundReturn"
      },
      "compoundAndWithdrawReturns()": {
        "details": "Compound savings and withdraw the returnsOnly allowed when savings lock period is pastCompound value capped to maxCompoundReturn"
      },
      "constructor": {
        "details": "Set contract deployer as owner",
        "params": {
          "_compoundPercentage": "savings compounding percentage",
          "_compoundPeriod": "seconds since last savings before compounding",
          "_maxCompoundReturn": "maximum amount of compounding on savings",
          "_tokenAddress": "ERC20 token address"
        }
      },
      "deposit(uint256)": {
        "details": "Deposit to caller's balance",
        "params": {
          "_amount": "amount of tokens to deposit"
        }
      },
      "getAccount()": {
        "details": "Return account",
        "returns": {
          "_account": "account"
        }
      },
      "getBalance()": {
        "details": "Return account balance",
        "returns": {
          "_balance": "account balance"
        }
      },
      "getSavings()": {
        "details": "Return account savings",
        "returns": {
          "_savings": "account savings"
        }
      },
      "getSavingsDate()": {
        "details": "Return savings timestamp",
        "returns": {
          "_date": "savings timestamp"
        }
      },
      "save(uint256)": {
        "details": "Move tokens from balance to savings",
        "params": {
          "_amount": "amount of tokens to transfer"
        }
      },
      "setCompoundPercentage(uint256)": {
        "details": "Set compound percentage",
        "params": {
          "_compoundPercentage": "savings compounding percentage"
        }
      },
      "setCompoundPeriod(uint256)": {
        "details": "Set compound period",
        "params": {
          "_compoundPeriod": "seconds since last savings before compounding"
        }
      },
      "setOwner(address)": {
        "details": "Set owner",
        "params": {
          "_owner": "new owner address"
        }
      },
      "unsave(uint256)": {
        "details": "Move tokens from savings to balanceOnly allowed when savings lock period is past",
        "params": {
          "_amount": "amount of tokens to transfer"
        }
      },
      "withdraw(uint256)": {
        "details": "Withdraw from caller's balance",
        "params": {
          "_amount": "amount of tokens to withdraw"
        }
      }
    },
    "title": "Bank",
    "version": 1
  },
  "userdoc": {
    "kind": "user",
    "methods": {},
    "version": 1
  }
}